:020000040800F2
:1000000018040020AD020008B5020008B70200087D
:10001000B9020008BB020008BD0200080000000091
:10002000000000000000000000000000BF02000807
:10003000C102000800000000C3020008C502000859
:10004000C7020008C7020008C7020008C70200086C
:10005000C7020008C7020008C7020008C70200085C
:10006000C7020008C7020008C7020008C70200084C
:10007000C7020008C7020008C7020008C70200083C
:10008000C7020008C7020008C7020008C70200082C
:1000900000000000C7020008C7020008C7020008ED
:1000A000C7020008C7020008C7020008C70200080C
:1000B000C7020008C7020008C7020008C7020008FC
:1000C000C7020008C7020008C7020008C7020008EC
:1000D000C7020008C7020008C7020008C7020008DC
:1000E000C7020008C7020008C7020008C7020008CC
:1000F000C70200080000000000000000C70200085E
:10010000C7020008C70200080D360008C702000831
:10011000C7020008C7020008C7020008C70200089B
:10012000C7020008C7020008C7020008C70200088B
:10013000C7020008C702000800F002F800F0A6F8A5
:1001400014A696E8000CB244B344DA4501D100F09D
:100150009DF8BAE80F000FA696E83000A5EB04055D
:1001600004EB0607AAEB0704A7F101074FEA1515F0
:100170004FEA3414A4F10104AC4201D300F086F834
:1001800013F0010F18BFFB1A43F0010300F001F850
:10019000DBE71847D858000018590000103A24BF70
:1001A00078C878C1FAD8520724BF30C830C144BFDC
:1001B00004680C60704700007047000000230024B2
:1001C00000250026103A28BF78C1FBD8520728BF67
:1001D00030C148BF0B6070476E2900F02B82702938
:1001E00000F06F83662905F0CD81652905F0CA818D
:1001F000672905F0C781612905F0C68103681B0ADC
:1002000028BF41F08001692900F0D881642900F0FD
:10021000D581752900F0D2816F2900F0FD827829FF
:1002200000F03B83E92900F09782E42900F09482F2
:10023000F52900F09182EF2900F0FA82F82900F008
:100240003A830368DB0928BF41F08001632901F08C
:100250006D80732901F07280E32901F07D80F3291C
:1002600001F08280002070471FB501F0D3F8040030
:100270000020002105F070F9401C60600020002182
:1002800005F054F9E0601FBD10B510BD01F094F801
:100290001146FFF7E9FF04F051FA01F071F903B4D8
:1002A000FFF7F2FF03BC01F0B9F9000009488047ED
:1002B00009480047FEE7FEE7FEE7FEE7FEE7FEE748
:1002C000FEE7FEE7FEE7FEE704480549054A064B60
:1002D0007047000019370008390100082882002003
:1002E00018040020288400201800002053EA020C83
:1002F00000F069802DE9F04B4FF00006002B1FBF86
:10030000B3FA83F503FA05F424FA05F65E4012BF4A
:100310001643B2FA82F502FA05F4C5F120051EBFB4
:1003200022FA05FC44EA0C04203556EA044C4FEA54
:10033000144418BF641C4FF000084FF000099042AD
:1003400071EB030C39D3002919BFB1FA81F701FA17
:1003500007F6B0FA80F700FA07F6C7F120071EBFCC
:1003600020FA07FC46EA0C062037B6FBF4FCA7EBA4
:100370000507103F07F01F0BCBF120062CFA06F6FD
:100380000CFA0BFB44BFB3460026202FA4BF5E46E9
:100390004FF0000B5BEA060C08BF4FF0010B19EBA6
:1003A0000B0948EB0608ABFB027C06FB02CC0BFBFF
:1003B00003CCC01B71EB0C01C1E70B460246414662
:1003C0004846BDE8F08B13B5084318BF4FF0FF3027
:1003D0000146AFF30080BDE81C4070477CB51D4668
:1003E00016460C00009007D04142A14202D320449F
:1003F000401E01E04FF0FF30064B7B442A46694621
:100400000190304600F02FF9002C02D0009A002114
:1004100011707CBD8F020000032A40F2308010F082
:10042000030C00F0158011F8013BBCF1020F62448F
:1004300098BF11F801CB00F8013B38BF11F8013B20
:10044000A2F1040298BF00F801CB38BF00F8013BCD
:1004500011F0030300F00483083AC0F0088051F85B
:10046000043B083A51F804CBA0E80810F5E7121D48
:100470005CBF51F8043B40F8043BAFF30080D20767
:1004800024BF11F8013B11F801CB48BF11F8012B33
:1004900024BF00F8013B00F801CB48BF00F8012B56
:1004A00070474FF0000200B5134694469646203937
:1004B00022BFA0E80C50A0E80C50B1F12001BFF41D
:1004C000F7AF090728BFA0E80C5048BF0CC05DF883
:1004D00004EB890028BF40F8042B08BF704748BFD1
:1004E00020F8022B11F0804F18BF00F8012B704745
:1004F00070477047704770B5044685690068C1064B
:1005000001D5302600E02026C00707D070BDD4E911
:10051000012130469047206A401C20626D1EF6D5AE
:1005200070BD70B5044685690078C00707D170BDFD
:10053000D4E9012120209047206A401C20626D1ED2
:10054000F6D570BD09684A0501D540B27047C905A6
:10055000FCD500B2704709684A0501D5C0B27047A2
:10056000C905FCD580B2704770B50C460546012A16
:1005700005D02878800600D5EA69002302E001232F
:1005800005E05B1C934202D2E05C0028F9D1A86927
:10059000E618C01AA861286A184428622846FFF79E
:1005A000AAFF04E0D5E9012114F8010B9047B442F9
:1005B000F8D32846FFF7B5FF70BD00002DE9F041E4
:1005C0000646002410687529314616A510D0FFF79D
:1005D000B9FF002802DA404213A507E031688A0714
:1005E00001D512A502E0490704D511A5012401E0B7
:1005F000FFF7B1FF00210A2206F1240709E0B0FB52
:10060000F2FCB0FBF2F302FB1C00303078541846C9
:10061000491C0028F3D123462A463046BDE8F04164
:1006200000F095BA000000002D0000002B00000033
:100630002000000011680268006A530501D50870A7
:100640000AE0D30501D5088006E0130603D5C217DA
:10065000C1E9000200E008600120704701694A1CFE
:1006600002610878704700B58FB0CDE901310021F3
:10067000059105497944CDE903101146684600F01B
:100680002BF90FB000BD0000E5FFFFFFD1E900230B
:100690009A4202D2531C0B60107070472DE9FF5F25
:1006A00015468A460446DFF8AC80F8440027D8E9AE
:1006B00000103E46CDE9001010E03AF816106A46E8
:1006C00002A800F055FE411C07D02178890603D509
:1006D000E269391891420DD80744761C20788006CB
:1006E00002D5E069B84205DDAE42E6DB3AF8160015
:1006F0000028E2D1A069C01BA0612046FFF7FBFEE5
:10070000D8E90010CDE90010002017E03AF81810E1
:100710006A4602A800F02CFEB0F1FF3F81460BD0E4
:1007200000250DF1080B05E0D4E901211BF80500B7
:1007300090476D1C4D45F7D308F10100B04280464B
:10074000E4DB206A384420622046FFF7EAFEBDE879
:10075000FF9F0000DE4E00002DE9F0418046D21DD3
:1007600022F007020025D2E90002F52915A614D0CF
:10077000011E72F1000106DA0023D0EB030063EBE7
:10078000020211A608E0D8F800108B0701D50FA6C9
:1007900002E0490701D50EA601251146002408F103
:1007A000240704E000F08EF930323A55641C50EA18
:1007B0000102F7D12B46324621464046BDE8F041C2
:1007C00000F0C5B9000000002D0000002B00000063
:1007D0002000000030B4002100F1240408E002F001
:1007E0000705D208303542EA4372DB086554491CDC
:1007F00052EA0305F3D10468002310A2250708D5A7
:1008000004F020040C4304D0C46901230CA2641E2C
:10081000C46130BC00F09BB910B504462146106895
:10082000FFF799FE02462046BDE810400023D1E7BD
:10083000D21D22F00701D1E90023CBE70000000020
:1008400030000000F0B40D460188090502D5214CA6
:100850007C4402E01F4C7C440E34002100F124064D
:1008600008E002F00F071209E75D42EA03721B0974
:100870007754491C52EA0307F3D102780023120788
:1008800004D5702D06D009B1022311342246F0BCE4
:1008900000F05DB901231034F8E770B504460D4649
:1008A00021461068FFF757FE024629462046BDE85C
:1008B00070400023C6E7D21D22F00703D3E90023CE
:1008C000C0E70368126843F0200303600823C36194
:1008D0000023B7E7404D00002DE9F05F894604464C
:1008E0004FF0000ADFF874B1FB44C0F820A02046A6
:1008F000E1688847002874D0252806D0D4E9012172
:100900009047206A401C2062F1E700265F4620469F
:10091000E16888472028054607DB312D05D2781984
:1009200010F8200C08B10643F1E7B00701D526F016
:100930000406C4F81CA00027C4F818A02A2D09D06A
:10094000284604F0EBFD38B304EB8708303DC8F8C7
:10095000185019E059F8041B204604EB87029161F6
:10096000E1688847012F054618D1E069002820DAA0
:1009700026F020061DE0D8F8180000EB800005EBFB
:1009800040003038C8F818002046E168884705461E
:1009900004F0C4FD0028EED1012F0AD02E2D08D17D
:1009A0002046E16888477F1C0546022F46F0200656
:1009B000C4DBA069002803DA404246F00106A061CA
:1009C000F00701D026F010066C2D0BD0682D09D051
:1009D0004C2D39D06A2D35D0742D35D07A2D33D0A9
:1009E00016E038E0E1682F4620468847B8420546C1
:1009F00009D16C2F26D04FF48060E1680643204671
:100A00008847054604E06C2F1AD04FF480700643E7
:100A10000DB3A5F14100192802D8203546F400662F
:100A20004A462946204626604E46FFF7D5FB80B150
:100A300001280BD0F61D26F0070000F1080956E743
:100A40004020E4E78020D8E70020D6E706F104093B
:100A50004DE7284652E7206ABDE8F09FD04C0000E1
:100A600010B5203AC0F00B80B1E81850A0E818503B
:100A7000B1E81850A0E81850203ABFF4F5AF5FEA8B
:100A8000027C24BFB1E81850A0E8185044BF18C930
:100A900018C0BDE810405FEA827C24BF51F8043BD7
:100AA00040F8043B08BF7047D20728BF31F8023B2B
:100AB00048BF11F8012B28BF20F8023B48BF00F8BF
:100AC000012B704730B5B0F10A0271F100034FEA13
:100AD000900E4EEA817EB0EB0E0061EB91014FEA81
:100AE000101E4EEA017E10EB0E0041EB11114FEA91
:100AF000102E4EEA016E10EB0E0041EB11214FEA71
:100B0000104E4EEA014E10EB0E0041EB1141401821
:100B100041F100014FEAD00040EA41704FEAD101B3
:100B20004FEA810444EA907410EB800544EB010421
:100B30006D1944EB0404521BA3414FF0000348BF5E
:100B40000A3200D530BD401C41F1000130BD2DE915
:100B5000F0470D4699469246044600F12408016884
:100B6000880604D5E06921F01001216000E0012031
:100B7000A84201DD471B00E00027A1697A1902EBBA
:100B80000900081AA0612078C00602D42046FFF7A9
:100B9000B2FC002608E0D4E901211AF806009047CB
:100BA000206A401C761C20624E45F4DB2078C0068B
:100BB0000AD52046FFF79FFC06E0D4E9012130204A
:100BC0009047206A401C2062381EA7F10107F4DC20
:100BD00007E0D4E9012118F805009047206A401C7D
:100BE0002062281EA5F10105F3DC2046FFF799FCE1
:100BF0002078000602D50220BDE8F0870120FBE73F
:100C00002DE9FF4F0C461E464FF0FF378BB0D2E95F
:100C10000001DDF860800A908A46C1F30A5505B9E3
:100C20003D46002108464FF00000BAF1000F00F4E5
:100C3000400005DA00EB80004FF4400101EA50006B
:100C40004FEA9059B9F1010F00DDB9460A9850EA10
:100C50004A000ED044F61050A5F2FF3545432F143C
:100C6000B8F1000F1ED07542291E1EDDC9F1000229
:100C70001CE0B8F1010F4FF0000001D0302103E07B
:100C8000F24305E02154401CB042FBDB3046002219
:100C9000002121540B99C1F80880C1E900200FB050
:100CA000BDE8F08FBD1B6D1CDEE74A4600DA6942E5
:100CB00006A800F0F3FB06AB93E8070003AB83E85C
:100CC000070050460A9904F04DF88DE80700A0F59A
:100CD00000501F3800900398002D0ADD42F21F01DA
:100CE0004A460844002303A90390684604F0B6FA74
:100CF00009E0A0F500504A461F38002303A90390DD
:100D0000684604F0C0FA8DE807000004000C03D028
:100D10004FF0FF30410800E01046B8F1000F03D05B
:100D20000022009215461EE0751E05D4FFF7CAFE8C
:100D3000303262556D1EF9D5B3460122084302D008
:100D400000227F1C04E02078302801D100227F1E81
:100D5000002A099784D01DE0112D07DAFFF7B2FEB3
:100D6000303262556D1C50EA0102F5D1084302D0C1
:100D70000098C8B10EE00021681E05E0235C625CAB
:100D800063542254401E491C8142F7DBAB46A81B2A
:100D9000401E0990002004F80B000B98099AC0F837
:100DA0000880C0E9002B7AE711264FF0000857E7CA
:100DB0002DE9F04F88460446D21D22F0070191B07C
:100DC000D1E90001CDE90A0104F094FB02460B9839
:100DD000C00F01D02D2007E02068810701D52B200E
:100DE00002E0202101EAC000032A099001D0072A6D
:100DF00005DB03464146204600F010FB0BE120785E
:100E0000800601D5E06900E00620B8F1650F814653
:100E100006D0B8F1660F18D0B8F1670F70D131E085
:100E20000020B9F1110F009001DB112301E009F15D
:100E300001030AAA01A90CA8FFF7E2FEDDE90C7084
:100E4000002609F10105834647E001204B4600904A
:100E50004FF000470AAA01A90CA8FFF7D1FEDDE96F
:100E60000DB00C995D46002610B909F101000D186E
:100E7000B9EB050003D4C0F1FF3609F10105A5EB7C
:100E800009002BE0B9F1010F01DA4FF00109002050
:100E9000B9F1110F0090484601DD112300E003462F
:100EA0000AAA01A90CA8FFF7ABFEDDE90C704D46BC
:100EB00000268346207800070AD4AB4500DA5D4659
:100EC00001A8012D04DD411911F8011C302907D0BA
:100ED0004F4502DA17F1040F04DA012082460FE0D1
:100EE0006D1EEEE7002F02DCED1B3E4403E0781C94
:100EF000A84200DD7D1CB81B00F1010A4FF000473D
:100F00002078000703D4AA4501DB4FF0FF3A002107
:100F1000B7F1004F0DF143088DF8431024D00220A3
:100F20002B23002F01DA7F422D230A21021EA0F17C
:100F3000010000DC5FB197FBF1FC97FBF1F201FBD4
:100F40001C7C17460CF1300C08F801CDEEE7A8F137
:100F5000010003702188090501D5452100E06521C4
:100F6000A0F1010800F8011C09980FA9A1EB0807DE
:100F7000FF1D00B10120411901EBEA70A16938445D
:100F8000081A401EA0612078C00602D42046FFF750
:100F9000B2FA099828B1D4E901219047206A401C8F
:100FA00020622078C00622D52046FFF7A4FA1EE072
:100FB000002E04DBB34502DD01A8805D00E0302097
:100FC000D4E901219047206A401C2062761CAAF1D6
:100FD00001005FEA000A0AD100F01CFAC06801684B
:100FE000405CD4E901219047206A401C2062281E01
:100FF000A5F10105DCDC07E0D4E9012118F8010BBB
:101000009047206A401C2062381EA7F10107F3DCDC
:101010002046FFF786FA032011B041E62DE9F04F94
:1010200004460D46D21D22F0070089B0D0E9009792
:101030004846394604F05EFA0246F80F01D02D23E7
:1010400007E02068810701D52B2302E0202101EA77
:10105000C0038DF820300BB1012000E00020032AEE
:10106000824601D0072A04DB2946204600F0D6F943
:101070003FE12078800601D40D2500E0E569C7F343
:101080000A560D2D49DA00214FEA175B08464FF04A
:101090000000002F00F4400007DA00EB80004FF45E
:1010A000400100EBD07001EA60008115012901DDEB
:1010B0004FF0FF3100224FEA850CBCF1180F06D328
:1010C0001346ACF118004FF08052C24003E04FF4D9
:1010D000801323FA0CF30CF10C0CBCF1200F04D399
:1010E000ACF1200C09FA0CF001E007FA0CF0002931
:1010F0004FF0004801DD18B90FE00ED140450CD388
:1011000019EB02095F4121B9404502D19F4329EA09
:101110000209BBEB175F00D0761C2088000502D5C2
:101120007B48784402E07A487844193808AA30238A
:1011300002F80A30037C0AF10101002E0AF1020ACA
:1011400053546A4602DC4FF0300101E04FF03101A8
:101150004FF001088DF8001002D0A6F2FF3603E030
:1011600059EA470100D06B4E002D02DC21780907B7
:1011700004D54FF002082E218DF80110C44600213D
:101180000BE0C7F303433F01C35C491C6D1E02F82B
:101190000830052908F1010801DA002DF1DC0021F1
:1011A0000CE000EB1973491C1B786D1E082902F82E
:1011B00008304FEA091908F1010801DA002DF0DCC6
:1011C00021688B0602D516E0A8F10108E04505DD8F
:1011D00002EB080313F8013C302BF5D0B8F1000FF7
:1011E00009DD02EB080313F8013C2E2B03D109079C
:1011F00001D4A8F10108002D05DD3E2102F80810F8
:101200006D1E08F10108407C002E02F8080008F16C
:10121000010804DA2D20764202F8080002E02B20B3
:1012200002F808000A214FF47A70864208F101089A
:101230000BDB96FBF0F3303302F8083096FBF0F34B
:1012400008F1010800FB136601E0642E0CDB64204A
:1012500096FBF0F3303302F8083096FBF0F308F118
:10126000010800FB136601E00A2E06DB96FBF1F095
:10127000303002F8080008F1010896FBF1F001FB9C
:101280001060303002F80800A16908F1010808EB8D
:10129000050202EB0A00081AA0612078C00602D4F9
:1012A0002046FFF728F9216A08AE01EB0A00206208
:1012B00004E0D4E9012116F8010B9047BAF1010AC4
:1012C000F7D22078C00602D52046FFF714F96E4603
:1012D00009E016F8010B3E280FD0D4E90121904710
:1012E000206A401C2062B8F10108F2D22046FFF7C4
:1012F00018F909B00320BDE8F08F206A2844206265
:1013000003E0D4E90121302090476D1EEBD3F8E7CC
:10131000BA44000002FCFFFF10B5436913B1AFF3FC
:10132000008001E0FFF720F9012010BD127800F1E4
:1013300024010A7000224A700122EDE711684FF083
:10134000FF32E9E710B5436913B1AFF3008001E064
:10135000FFF7A4F9012010BD128800F12401828456
:101360000022C2840122EDE711684FF0FF32E9E765
:101370002DE9F04116460C46054600F043F8036897
:1013800093F80101012807D0FF2C12D8185D80B115
:1013900001202C70BDE8F081D3F8070132462146C8
:1013A00003F20713C7182846BC46BDE8F0410023E6
:1013B00060474FF0FF30EDE7754600F0EBF8AE46C2
:1013C00005006946534620F00700854618B020B551
:1013D000FEF77AFFBDE820404FF000064FF000070F
:1013E0004FF000084FF0000BAC46ACE8C009ACE889
:1013F000C009ACE8C009ACE8C00921F007018D467E
:101400007047000010B500F005F8001D10BD00BFCA
:101410004941000000487047288000202DE9F04134
:101420001F46044603260168072A01F4006004DB16
:1014300008B116A505E016A503E008B115A500E062
:1014400015A521F010002060A069C01EA0610FB199
:10145000401EA0612046FFF74EF84FB1D4E90121AC
:1014600038469047206A401C2062C01C206206E07B
:10147000206AFAE7D4E9012115F8010B9047761E9E
:10148000F8D22046FFF74DF8BDE8F0814E414E00FE
:101490006E616E00494E4600696E66002DE9F047A8
:1014A000814616468AB0354878440DC88DE80D004F
:1014B00032487844801C03AC0DC884E80D0041F626
:1014C0009B300844372190FBF1F290FBF1F5A5F138
:1014D000800501FB12041B3C02D56442012000E0A0
:1014E0000020DFF898A080460027FA44AAF1BE0A3F
:1014F0000EE0E0070AD03246684607EB47010123B9
:101500000AEB810103F0BFFE8DE8070064107F1C29
:10151000002CEED1194F7F44AE3F19E0E80715D0FB
:1015200007EB04100DF1180A90E80E008AE80E008F
:10153000C068F04201D1981908903246012306A9EB
:1015400003A803F0A0FE03AB83E807006D10641C42
:10155000002DE3D14FF0010332466946B8F1000F88
:1015600003A802D003F07AFE01E003F08CFEC9E983
:101570000001C9F808200AB0BDE8F087C4410000A6
:1015800010B50446AFF300802046BDE81040FEF7DA
:1015900086BE000000487047088000200000000060
:1015A00030B44FF0013C50F8042B51F8043BCCFA16
:1015B00052F4D51A20D1FCB950F8042B51F8043B51
:1015C000CCFA52F4D51A17D1B4B950F8042B51F80B
:1015D000043BCCFA52F4D51A0ED16CB950F8042B56
:1015E00051F8043BCCFA52F4D51A05D1002CDAD0CC
:1015F00030BC4FF00000704729BAB1FA81F111F008
:101600001801D1F120008440F2D1CA40CB4012F041
:10161000FF0213F0FF0330BCD01A704701491820B5
:10162000ABBEFEE7260002007047000080B584B024
:10163000039000F099F9029003980190019801300D
:1016400048B1FFE748F20000C2F2000001780198BB
:1016500008440190FFE7FFE700F086F90299401A7D
:101660000199884201D2FFE7F6E704B080BD00008F
:1016700087B00690059100200490FFE70598006868
:101680000499C840002800F06C81FFE705980068C5
:10169000049A01219140084003900398002800F02B
:1016A0005C81FFE70598406800F00300012807D03F
:1016B000FFE70598406800F0030002282FD1FFE7FC
:1016C00006988068029004984100032000FA01F116
:1016D0000298884302900598C0680499490000FA6E
:1016E00001F10298084302900298069988600698D2
:1016F000406802900499012000FA01F102988843A1
:10170000029005984068C0F30010049900FA01F1B6
:10171000029808430290029806994860FFE70598EE
:10172000406800F00300032818D0FFE70698C0685F
:10173000029004984100032000FA01F102988843C6
:101740000290059880680499490000FA01F1029816
:101750000843029002980699C860FFE70598406820
:1017600000F00300022826D1FFE7069804996FF0E5
:10177000030202EA51010844006A0290049800F052
:10178000070081000F2000FA01F1029888430290BF
:1017900005980069049901F00701890000FA01F138
:1017A00002980843029002980699049B02EA5302A9
:1017B00011440862FFE7069800680290049841000F
:1017C000032000FA01F102988843029005984068CE
:1017D00000F003000499490000FA01F1029808435F
:1017E0000290029806990860059880798007002881
:1017F00000F0B280FFE7049820F003000821C4F253
:10180000010140580290049800F003008100072075
:1018100000FA01F10298884302900698B0F1904FC7
:1018200003D1FFE70020019018E0069840F2004144
:10183000C4F60001884203D1FFE7012000900AE0CE
:10184000069940F60002C4F600020720914208BF44
:1018500002200090FFE700980190FFE701980499AB
:1018600001F00301890000FA01F102980843029097
:101870000298049921F003010822C4F20102885061
:1018800040F60000C5F60000006802900399029837
:101890008843029005988079C006002805D5FFE7A7
:1018A0000399029808430290FFE7029840F600016E
:1018B000C5F60001086040F60400C5F600000068A7
:1018C00002900399029888430290059880798006D7
:1018D000002805D5FFE70399029808430290FFE727
:1018E000029840F60401C5F60001086040F6800049
:1018F000C5F60000006802900399029888430290A0
:1019000005988079C00728B1FFE70399029808433A
:101910000290FFE7029840F68001C5F600010860DA
:1019200040F68400C5F60000006802900399029812
:1019300088430290059880798007002805D5FFE745
:101940000399029808430290FFE7029840F6840149
:10195000C5F600010860FFE7FFE704980130049036
:101960008CE607B07047000048F22020C2F2000069
:101970000068704780B582B000208DF80700032012
:1019800000F07EF800F0EEF940F20001C2F2000132
:1019900008600F2000F00EF820B1FFE701208DF85D
:1019A000070002E000F048F8FFE79DF8070002B0EA
:1019B00080BD000080B582B0019000208DF803004A
:1019C00048F20000C2F20000007860B3FFE700F0C8
:1019D000C9F948F20001C2F200010A784FF47A71A5
:1019E000B1FBF2F1B0FBF1F001F0D2F8B0B9FFE7D2
:1019F00001980F280DD8FFE701994FF0FF30002222
:101A000000F026F8019840F20401C2F200010860DB
:101A100003E001208DF80300FFE703E001208DF8CB
:101A20000300FFE703E001208DF80300FFE79DF8C6
:101A3000030002B080BD00007047000080B582B096
:101A40008DF807009DF9070002F020FB02B080BD71
:101A500080B586B08DF817000491039202F02EFB3A
:101A600002909DF91700019002980499039A01F0E1
:101A7000F1FB0146019802F029FB06B080BD000091
:101A800080B582B00190019802F042FB02B080BDA7
:101A900040F20040C5F60000006800F4C0607047E6
:101AA00040F20041C5F60001086840F4807008600B
:101AB0007047000080B584B002900191029820B96F
:101AC000FFE701208DF80F0048E1019844F2000182
:101AD000C5F60001096801F00701884226D9FFE731
:101AE00044F20001C5F60001086820F00700019AE1
:101AF00010430860FFF738FF0090FFE744F2000052
:101B0000C5F60000006800F00700019988420CD07B
:101B1000FFE7FFF729FF0099401A032804D3FFE7E6
:101B200003208DF80F0019E1E8E7FFE7029800783D
:101B30008007002819D5FFE70298806801F010FBA4
:101B4000FFF712FF0090FFE701F03CFA60B9FFE7F2
:101B5000FFF70AFF0099401A032804D3FFE7032088
:101B60008DF80F00FAE0EFE7FFE7029800784006F3
:101B7000002819D5FFE70298406901F0E1FAFFF764
:101B8000F3FE0090FFE701F035FA60B9FFE7FFF7D9
:101B9000EBFE0099401A032804D3FFE703208DF8D9
:101BA0000F00DBE0EFE7FFE702980078400700282E
:101BB00019D5FFE70298C06801F0E0FAFFF7D4FEFC
:101BC0000090FFE701F006FA60B9FFE7FFF7CCFEEF
:101BD0000099401A032804D3FFE703208DF80F0073
:101BE000BCE0EFE7FFE702980078000700281AD56D
:101BF000FFE702980069C00001F0CEFAFFF7B4FEDB
:101C00000090FFE701F0EEF960B9FFE7FFF7ACFEE7
:101C10000099401A032804D3FFE703208DF80F0032
:101C20009CE0EFE7FFE702980078C007002853D058
:101C3000FFE702984068022809D1FFE701F098F910
:101C400020B9FFE701208DF80F0087E025E002981A
:101C50004068032809D1FFE701F064FA20B9FFE7E3
:101C600001208DF80F0079E016E00298406848B92D
:101C7000FFE701F013FA20B9FFE701208DF80F000C
:101C80006CE008E001F08AF920B9FFE701208DF847
:101C90000F0063E0FFE7FFE7FFE70298406801F00D
:101CA00089FAFFF761FE0090FFE701F027F902993A
:101CB0004968B0EB810F0ED0FFE7FFF755FE0099A2
:101CC000401A41F28931884204D3FFE703208DF89E
:101CD0000F0043E0E9E7FFE7019844F20001C5F691
:101CE0000001096801F00701884226D2FFE744F2AB
:101CF0000001C5F60001086820F00700019A1043B2
:101D00000860FFF731FE0090FFE744F20000C5F6DF
:101D10000000006800F00700019988420CD0FFE73E
:101D2000FFF722FE0099401A032804D3FFE703209F
:101D30008DF80F0012E0E8E7FFE700F013F840F23B
:101D40000001C2F20001086040F20400C2F200008B
:101D50000068FFF72FFE8DF80F00FFE79DF80F00DA
:101D600004B080BD80B582B000F03AF8019001F077
:101D7000A3F80146019801F0F0018A0845F2886154
:101D8000C0F600018958B0FBF1F002B080BD000040
:101D900080B582B0FFF7E6FF019001F095F80146AB
:101DA00001980A0A45F2C861C0F6000151F82210F4
:101DB000C84002B080BD000080B582B0FFF7D2FFFE
:101DC000019001F089F801460198CA0A45F2C861FC
:101DD000C0F6000151F82210C84002B080BD0000DA
:101DE00080B58EB000200B900A9001F087F80D901E
:101DF00001F080F90C900D9840B1FFE70D980C2888
:101E000041D1FFE70C9801283DD1FFE701F040F9EF
:101E1000C0B9FFE701F03CF9012804D1FFE701F068
:101E200029F9089003E001F02BF90890FFE70898E2
:101E300000F47060810945F2E860C0F60000405887
:101E4000079017E001F024F9012804D1FFE701F021
:101E500011F9069003E001F013F90690FFE70698E8
:101E600000F0F000810845F2E860C0F6000040583C
:101E70000790FFE707980A900D9818B9FFE70A98AE
:101E80000B90FFE722E00D98042806D1FFE742F20D
:101E90000040C0F2F4000B9017E00D98082812D112
:101EA000FFE701F05FF8012806D1FFE742F20040AA
:101EB000C0F2F4000B9005E044F60000C0F2E81018
:101EC0000B90FFE700E0FFE7FFE7FFE701F016F800
:101ED0000C284AD1FFE701F00DF90C900C98059001
:101EE000012820D0FFE70598022804D0FFE70598D5
:101EF000032806D018E042F20040C0F2F400099036
:101F000015E001F02FF8012806D1FFE742F200406A
:101F1000C0F2F400099005E044F60000C0F2E810B9
:101F20000990FFE703E0FFE70A980990FFE70998A7
:101F3000019001F0E7F8014601984843029001F052
:101F4000D1F8024602980121039101EB1211B0FB76
:101F5000F1F0049001F0DEF803990246049801EBD9
:101F60005271B0FBF1F00B90FFE70B980EB080BD03
:101F700010B58AB00890089820B9FFE701208DF8C5
:101F80002700C3E300F0BAFF069001F0B3F8059014
:101F9000089800788006002840F1D280FFE7069874
:101FA00048B1FFE706980C2840F08380FFE70598CA
:101FB00001287ED1FFE70898006A20B9FFE70120D9
:101FC0008DF82700A2E30898806A02904FF0B04095
:101FD00000680007002807D5FFE74FF0B040006811
:101FE00000F0F000019008E09420C5F600000068C1
:101FF00000F4706000090190FFE70298019988429F
:102000001ED9FFE70898806A01F0DCF920B1FFE7EC
:1020100001208DF8270079E3FFE74FF0B041086811
:1020200040F008000860086820F0F000089A926A02
:1020300010430860FFE70898406A01F035F81DE09A
:10204000FFE74FF0B041086840F0080008600868FA
:1020500020F0F000089A926A10430860FFE70898A1
:10206000406A01F021F80898806A01F0ABF920B1CC
:10207000FFE701208DF8270048E3FFE7FFF772FE36
:1020800040F20001C2F20001086040F20400C2F216
:1020900000000068FFF78EFC8DF813009DF8130018
:1020A00028B1FFE79DF813008DF827002EE3FFE726
:1020B00045E00898006A50B3FFE700F0D3FFFFF750
:1020C00053FC0790FFE700F0E9FF60B9FFE7FFF777
:1020D0004BFC0799401A032804D3FFE703208DF82F
:1020E000270013E3EFE7FFE74FF0B041086840F047
:1020F00008000860086820F0F000089A926A10430F
:102100000860FFE70898406A00F0CEFF16E000F094
:10211000A1FFFFF729FC0790FFE700F0BFFF60B1C8
:10212000FFE7FFF721FC0799401A032804D3FFE7D4
:1021300003208DF82700E9E2EFE7FFE7FFE7FFE77D
:1021400008980078C00700286AD0FFE7069808289A
:1021500008D0FFE706980C280DD1FFE70598032863
:1021600009D1FFE70898406820B9FFE701208DF802
:102170002700CBE253E04FF0B041086820F4801014
:10218000089A926810430860FFE708984068B0F525
:10219000803F03D1FFE700F0D5FE10E008984068CB
:1021A000B0F5041F05D1FFE700F0D4FE00F0CAFE31
:1021B00004E000F0B7FE00F0BDFEFFE7FFE7FFE739
:1021C00008984068A8B1FFE7FFF7CEFB0790FFE74C
:1021D00000F0CEFE60B9FFE7FFF7C6FB0799401A93
:1021E000652804D3FFE703208DF827008EE2EFE790
:1021F00014E0FFF7B9FB0790FFE700F0B9FE60B10C
:10220000FFE7FFF7B1FB0799401A652804D3FFE702
:1022100003208DF8270079E2EFE7FFE7FFE7FFE70C
:10222000089800788007002852D5FFE70698042810
:1022300008D0FFE706980C2812D1FFE7059802287E
:102240000ED1FFE70898006920B9FFE701208DF85B
:1022500027005BE20898406900F0A6FEFFE736E041
:1022600008980069D8B1FFE700F090FEFFF77CFB0B
:102270000790FFE700F092FE60B9FFE7FFF774FBFD
:102280000799401A032804D3FFE703208DF827009D
:102290003CE2EFE70898406900F086FE16E000F0A7
:1022A0006DFEFFF761FB0790FFE700F077FE60B17E
:1022B000FFE7FFF759FB0799401A032804D3FFE70C
:1022C00003208DF8270021E2EFE7FFE7FFE7FFE7B4
:1022D000089800780007002878D5FFE708988069FB
:1022E00000285BD0FFE79420C5F60000006803904B
:1022F0000898C069039901F01001884237D0FFE7C0
:102300009DF80C00800700280AD5FFE7039800F02D
:102310000100012804D0FFE701208DF82700F5E136
:102320009DF80C00C007B8B1FFE700F07BFEFFF797
:102330001BFB0790FFE700F085FE60B1FFE7FFF7AA
:1023400013FB0799401A122804D3FFE703208DF8E6
:102350002700DBE1EFE7FFE79421C5F600010868FD
:1023600020F01000089AD26910430860FFE700F0DF
:1023700061FEFFF7F9FA0790FFE700F063FE60B92E
:10238000FFE7FFF7F1FA0799401A122804D3FFE795
:1023900003208DF82700B9E1EFE716E000F042FED8
:1023A000FFF7E2FA0790FFE700F04CFE60B1FFE7AD
:1023B000FFF7DAFA0799401A122804D3FFE703203F
:1023C0008DF82700A2E1EFE7FFE7FFE70898007824
:1023D0004007002840F1DF80FFE700F039FDB8B981
:1023E000FFE7FFF75DFBFFF7BFFA0790FFE700F09D
:1023F0002FFD60B9FFE7FFF7B7FA0799401A0328E6
:1024000004D3FFE703208DF827007FE1EFE7FFE724
:102410000898C06800287ED0FFE70898C068852823
:1024200005D0FFE70898C068052808D1FFE790218C
:10243000C5F60001086840F004000860FFE7FFF7F8
:1024400093FA07909021C5F60001086840F001005A
:102450000860FFE700F0DEFD70B9FFE7FFF784FAE0
:102460000799401A41F28931884204D3FFE70320DB
:102470008DF827004AE1EDE70898C068812805D06B
:10248000FFE70898C068852822D1FFE7FFF76CFABC
:1024900007909021C5F60001086840F080000860B0
:1024A000FFE79020C5F600000068000500280ED464
:1024B000FFE7FFF759FA0799401A41F2893188423C
:1024C00004D3FFE703208DF827001FE1E9E721E0AF
:1024D000FFF74AFA07909021C5F60001086820F03E
:1024E00080000860FFE79020C5F600000068000546
:1024F00000280ED5FFE7FFF737FA0799401A41F297
:102500008931884204D3FFE703208DF82700FDE0DE
:10251000E9E7FFE73EE0FFF727FA07909021C5F6CD
:102520000001086820F080000860FFE79020C5F6F1
:1025300000000068000500280ED5FFE7FFF714FA39
:102540000799401A41F28931884204D3FFE70320FA
:102550008DF82700DAE0E9E7FFF706FA0790902107
:10256000C5F60001086820F001000860FFE700F0F0
:1025700051FD70B1FFE7FFF7F7F90799401A41F2F3
:102580008931884204D3FFE703208DF82700BDE09E
:10259000EDE7FFE7FFE70898C06A002800F0B28087
:1025A000FFE706980C2877D0FFE70898C06A022852
:1025B00050D1FFE700F086FDFFF7D6F90790FFE75F
:1025C00000F0B0FD60B1FFE7FFF7CEF90799401AC0
:1025D0000B2804D3FFE703208DF8270096E0EFE7F0
:1025E0000C21C5F600010091086848F28C02C1F286
:1025F000C1121040089B1A6B5C6BD3F838E0D3F81B
:102600003CC0224342EA0E2242EA0C02D3F840C008
:1026100042EA0C025B6C1A431043086000F05AFD5A
:102620000099086840F080500860FFF79DF9079016
:10263000FFE700F077FD60B9FFE7FFF795F907992D
:10264000401A0B2804D3FFE703208DF827005DE034
:10265000EFE720E000F036FDFFF786F90790FFE78F
:1026600000F060FD60B1FFE7FFF77EF90799401ABF
:102670000B2804D3FFE703208DF8270046E0EFE79F
:102680000C21C5F6000108684FF6FC72CEF6FE621A
:1026900010400860FFE734E00898C06A012804D1C0
:1026A000FFE701208DF8270030E00C20C5F6000080
:1026B00000680590059800F003000899096B8842AE
:1026C00019D1FFE7059800F070000899496B88421E
:1026D00011D1FFE7059800F4FE400899896BB0EB33
:1026E000012F08D1FFE7059800F060400899496C78
:1026F000884204D0FFE701208DF8270006E0FFE7BD
:10270000FFE7FFE700208DF82700FFE79DF827008F
:102710000AB010BD80B588B006908DF817100492ED
:10272000ADF80E300498029006988079012855D1B2
:10273000FFE7FFE706984079012804D1FFE7022070
:102740008DF81F004EE0069901204871FFE7FFE772
:10275000069800F039FF00F083FB06989DF81710EB
:1027600000F0D6FE06980021009100F0D1FE0098FE
:10277000ADF80600FFE7BDF80600BDF80E10884270
:102780000EDAFFE70698029900F066FE0298013023
:102790000290FFE7BDF806000130ADF80600EAE759
:1027A00000F076FB069800F035FF0698806820B1AF
:1027B000FFE701208DF80D0003E000208DF80D00EB
:1027C000FFE7069901208871FFE70699002048710C
:1027D000FFE79DF80D008DF81F0003E002208DF843
:1027E0001F00FFE79DF81F0008B080BD80B586B0D0
:1027F00004908DF80F100292ADF80630049880799D
:10280000012868D1FFE7FFE704984079012804D147
:10281000FFE702208DF8170061E00499012048715C
:10282000FFE7FFE7049800F0CFFE9DF80F00842833
:1028300005D0FFE79DF80F00942804D1FFE7049925
:102840000120087103E0049900200871FFE700F0FF
:1028500007FB04989DF80F1000F05AFE0020ADF819
:102860000200FFE7BDF80200BDF8061088420EDA4C
:10287000FFE704980299BDF80220895C00F048FE49
:10288000FFE7BDF802000130ADF80200EAE700F012
:10289000FFFA9DF80F00842804D0FFE7049800F0A9
:1028A000B9FEFFE70498806820B1FFE701208DF8AA
:1028B000050003E000208DF80500FFE704990120E2
:1028C0008871FFE7049900204871FFE79DF8050033
:1028D0008DF8170003E002208DF81700FFE79DF840
:1028E000170006B080BD000080B586B00490049843
:1028F00040B9FFE701208DF80F009DF80F008DF81B
:10290000170063E000208DF80F00FFE7049880793E
:102910008DF807009DF8070028B1FFE79DF8070034
:1029200003280BD1FFE7049900204871049800F0B8
:1029300051F84FF4805000F067FAFFE79DF8070068
:1029400058BBFFE704990220887100F0F1FB40F2C8
:102950000000C2F200000068C0EBC000C0F34C40B1
:10296000642148430290FFE7029830B9FFE7012055
:102970008DF80F000499886008E0029801380290F1
:10298000FFE700F03FFB0028EED1FFE700F080FA00
:102990004FF4006000F06EFAFFE700F041FA9DF896
:1029A0000F0058B9FFE70498006800F03BFD049958
:1029B00001200871049900208860FFE70499012034
:1029C00088719DF80F008DF81700FFE79DF817003C
:1029D00006B080BD81B0009001B0704780B588B06E
:1029E00006908DF817100492ADF80E3004980290FE
:1029F00006988079012859D1FFE7FFE706984079CA
:102A0000012804D1FFE702208DF81F0052E006994B
:102A100001204871FFE7FFE7069800F0D5FD00F0C0
:102A20001FFA06981E2100F073FD06989DF81710F6
:102A300000F06EFD06980021009100F069FD0098FD
:102A4000ADF80600FFE7BDF80600BDF80E1088429D
:102A50000EDAFFE70698029900F0FEFC02980130BA
:102A60000290FFE7BDF806000130ADF80600EAE786
:102A700000F00EFA069800F0CDFD0698806820B1AF
:102A8000FFE701208DF80D0003E000208DF80D0018
:102A9000FFE7069901208871FFE706990020487139
:102AA000FFE79DF80D008DF81F0003E002208DF870
:102AB0001F00FFE79DF81F0008B080BD80B586B0FD
:102AC00004908DF80F100292ADF8063004988079CA
:102AD000012854D1FFE7FFE704984079012804D189
:102AE000FFE702208DF817004DE00499012048719E
:102AF000FFE7FFE7049800F067FD00F0B1F90498E4
:102B00000E2100F005FD04989DF80F1000F000FD67
:102B10000020ADF80200FFE7BDF80200BDF8061086
:102B200088420EDAFFE704980299BDF80220895C1A
:102B300000F0EEFCFFE7BDF802000130ADF8020046
:102B4000EAE700F0A5F9049800F064FD04988068B5
:102B500020B1FFE701208DF8050003E000208DF88B
:102B60000500FFE7049901208871FFE70499002020
:102B70004871FFE79DF805008DF8170003E002207B
:102B80008DF81700FFE79DF8170006B080BD000024
:102B900080B582B00190019800F06CFD02B080BD5C
:102BA00080B582B00090009820B9FFE701208DF831
:102BB000070046E00098806908B1FFE700E0FFE702
:102BC0000098D0F8880040B9FFE70099002081F80C
:102BD0008400009800F03AF8FFE700992420C1F83B
:102BE000880000980168086820F0010008600098DB
:102BF000806A20B1FFE7009800F090FDFFE70098A1
:102C000000F024FF012804D1FFE701208DF8070020
:102C100017E000980168486820F4904048600098E8
:102C20000168886820F02A008860009801680868B8
:102C300040F001000860009800F014FE8DF80700D5
:102C4000FFE79DF8070002B080BD000081B0009052
:102C500001B0704780B58AB008900791ADF81A208E
:102C600005930898D0F88800202840F09580FFE769
:102C7000079820B1FFE7BDF81A0020B9FFE701204F
:102C80008DF827008CE008990020C1F89000089981
:102C90002120C1F88800FEF767FE0290BDF81A00F7
:102CA0000899A1F85400BDF81A000899A1F8560037
:102CB00008988068B0F5805F09D1FFE7089800693F
:102CC00028B9FFE7002004900798039004E00798D4
:102CD000049000200390FFE7FFE70898B0F8560043
:102CE00000283ED0FFE70898029B05996A461160CC
:102CF0008021002201F044F940B1FFE7089920202B
:102D0000C1F8880003208DF8270049E0049858B9DD
:102D1000FFE7039800886FF35F20089909688862CD
:102D200003980230039008E0049800780899096835
:102D30008862049801300490FFE70898D0F8880072
:102D400000F02100212807D1FFE70899B1F85600CB
:102D50000138A1F8560003E001208DF827001FE09C
:102D6000BBE70898029B05996A4611604021002242
:102D700001F006F940B1FFE708992020C1F888006A
:102D800003208DF827000BE008992020C1F8880067
:102D900000208DF8270003E002208DF82700FFE7D0
:102DA0009DF827000AB080BD82B00190019A4C20A6
:102DB000C5F60000016811430160006801990840F0
:102DC0000090009802B0704782B00190019A58209C
:102DD000C5F60000016811430160006801990840D0
:102DE0000090009802B0704782B00190019A642070
:102DF000C5F60000016811430160006801990840B0
:102E00000090009802B0704781B00090009A40F6A0
:102E10009001C5F6000108681043086001B07047D2
:102E200040F21841C5F600014FF400600860704799
:102E300040F21440C5F600000068C0F380007047FF
:102E400040F21440C5F600000068C0F3400070472F
:102E500040F20040C5F600000068C0F30020704753
:102E600040F29041C5F60001086820F40040086077
:102E70007047000081B0009040F20841C5F60001A3
:102E8000086820F40060009A1043086001B07047A1
:102E900040F29041C5F60001086840F40040086027
:102EA0007047000040F20810C5F60000006800F00E
:102EB0000F000001704700000820C5F60000006800
:102EC00000F0F000704700000820C5F60000006820
:102ED00000F4E060704700000820C5F600000068BC
:102EE00000F460507047000081B000908820C5F663
:102EF000000000680099084001B070470820C5F63E
:102F00000000006800F00C007047000081B00090E5
:102F10008820C5F6000000680099084040EA01409A
:102F200001B070474FF0B041086820F4803008606D
:102F3000704700004FF0B041086820F400100860AE
:102F4000704700004FF0B041086840F480300860DE
:102F5000704700004FF0B041086840F4001008606E
:102F6000704700004FF0B0400068C0F30050704759
:102F70004FF0B0400068C0F3404070474FF0B041A0
:102F8000086820F480700860704700004FF0B0417E
:102F9000086840F480700860704700004FF0B0404F
:102FA0000068C0F38020704781B000900421C5F60E
:102FB0000001086820F0FE40009A40EA02600860C4
:102FC00001B070470820C5F600000068C0F300405B
:102FD000704700000820C5F600000068C0F34040BC
:102FE000704700000820C5F600000068C0F380406C
:102FF0007047000040F20810C5F600000068C0F3FA
:10300000004070479420C5F600000068C0F380308F
:10301000704700009020C5F600000068C0F3400033
:10302000704700009421C5F60001086820F00100F7
:10303000086070479421C5F60001086840F001005F
:10304000086070479420C5F600000068C0F3400097
:10305000704700004FF0B041086820F001000860A0
:10306000704700004FF0B041086840F00100086070
:10307000704700004FF0B040006800F0F00070476B
:103080009420C5F60000006800F4706070470000EE
:103090004FF0B0400068C0F3C00070474FF0B04040
:1030A0000068C0F34000704781B000900421C5F66D
:1030B0000001086820F47F40009A40EA022008607E
:1030C00001B070474FF0B041086820F08070086090
:1030D000704700004FF0B041086840F08070086011
:1030E000704700000C20C5F60000006800F070007A
:1030F000704700000C20C5F60000006800F00300D7
:10310000704700000C20C5F600000068C0F30620E0
:10311000704700000C20C5F60000006800F0604019
:10312000704700004FF0B0400068C0F34060704747
:103130009421C5F60001086820F40040086070473B
:1031400081B0009040F20811C5F60001086820F037
:103150000F00009A40EA1210086001B070470000AA
:1031600081B000900821C5F60001086820F0F00049
:10317000009A1043086001B07047000081B00090D1
:103180000821C5F60001086820F4E060009A1043A9
:10319000086001B07047000081B000900821C5F6BA
:1031A0000001086820F46050009A1043086001B0E4
:1031B0007047000081B000900821C5F60001086842
:1031C00020F00300009A1043086001B0704700002F
:1031D00080B50120FFF7E8FD0220FFF7E5FD0420A0
:1031E000FFF7E2FD80BD000080B588B04FF40030ED
:1031F000FFF7EAFD0120FFF7D7FD002002900790BE
:1032000006900590049003900C21019103910221F6
:10321000049105900690072007904FF0904003A975
:10322000FEF726FA019A029948F26800C2F20000FD
:1032300044F20043C4F2000303604FF4E1334360FF
:103240008160C160016142618161C161FFF7A8FCD9
:1032500008B080BD88B0079006910592079800F0ED
:10326000070004900498C0F10700052803D3FFE786
:103270000420019004E00498C0F107000190FFE7EA
:103280000198039004980430062803D8FFE7002033
:10329000009003E0049803380090FFE70098029044
:1032A00006980399012202FA01F101390840029BB4
:1032B000984005999A40013A1140084308B0704778
:1032C00080B58EB00C900B913020ADF82800122004
:1032D000C0F2240009901020ADF820000620C0F2B2
:1032E0000C00079002200690012005900020049019
:1032F00003900B98B0F5007F1BD1FFE700200190F1
:10330000FFE70198022813D8FFE70C98019A09A952
:1033100031F81210884206D8FFE7019904A850F846
:103320002100039004E0FFE7019801300190E8E7F5
:103330001AE000200090FFE70098022813D8FFE76A
:103340000C98009A07A931F81210884206D8FFE7B6
:10335000009904A850F82100039004E0FFE70098CA
:1033600001300090E8E7FFE744F20001C5F60001F4
:10337000086820F00700039A10430860FEF7F4FA8B
:103380000290FFE744F20000C5F60000006800F07C
:103390000700039988420CD0FFE7FEF7E5FA02998F
:1033A000401A032804D3FFE703208DF8370004E018
:1033B000E8E700208DF83700FFE79DF837000EB0F2
:1033C00080BD000080B586B00590059800F0F00043
:1033D000810845F2E860C0F6000040580390039869
:1033E0000190FFF75FFD024601983C2101EA92023D
:1033F00045F28861C0F600018958B0FBF1F00490F5
:1034000004984DF68361C4F21B31A0FB0110800CBF
:103410000290FEF73DFB01460298FFF751FF06B010
:1034200080BD000081B000900021C5F60101086850
:1034300020F040000860009840F4417008600422C9
:10344000C5F601024FF4B8501060086840F0400023
:10345000086001B07047000085B00490039100201F
:103460008DF80B0040F20000C2F200000068C0EBD3
:10347000C000C0F34C40642148430190FFE701982D
:1034800030B9FFE701208DF80B00049988600BE04C
:10349000019801380190FFE70820C5F60100006897
:1034A00080070028EBD5FFE70C20C5F6010000904F
:1034B0000099FF20087040F20000C2F2000000688E
:1034C000C0EBC000C0F34C40642148430190FFE7CB
:1034D000019830B9FFE701208DF80B00049988604E
:1034E0000BE0019801380190FFE70820C5F60100C4
:1034F0000068C0070028EBD0FFE70C20C5F60100EC
:103500000068039908709DF80B0005B07047000033
:1035100084B003908DF80B1000208DF80A0040F263
:103520000000C2F200000068C0EBC000C0F34C40D5
:10353000642148430190FFE7019830B9FFE701207B
:103540008DF80A00039988600BE00198013801901A
:10355000FFE70820C5F60100006880070028EBD5CA
:10356000FFE70C20C5F6010000909DF80B000099C4
:10357000087040F20000C2F200000068C0EBC0001A
:10358000C0F34C40642148430190FFE7019830B9F3
:10359000FFE701208DF80A00039988600BE001988D
:1035A00001380190FFE70820C5F601000068C00758
:1035B0000028EBD0FFE70C20C5F6010000689DF85D
:1035C0000A0004B07047000080B582B001900198F5
:1035D0000079012814D1FFE740F20000C2F2000098
:1035E00040880090FFF73CFCFFE70098013800900E
:1035F000FFE700980028F8D1FFE7FFF749FCFFE755
:10360000019800F007F802B080BD000080B500F01E
:1036100069FF80BD80B584B0039000208DF80B0059
:1036200040F20000C2F20000006800EB4000C0F36E
:103630004B40642148430190FFE7FFF7F9FB0090FE
:10364000019838B9FFE701208DF80B00039902209B
:1036500088600AE0019801380190FFE7FFF7F0FB6E
:10366000009908400128E8D0FFE79DF80B0004B05E
:1036700080BD000080B582B0009000980138B0F1A4
:10368000807F03D3FFE70120019019E00098013803
:103690004EF21401CEF2000108604FF0FF300F210E
:1036A00000F014FD4EF21801CEF200010020086077
:1036B0004EF21002CEF20002072111600190FFE7E6
:1036C000019802B080BD000080B59AB008A80090B3
:1036D0004821FCF7E6FE0098002101910791069130
:1036E00005910491039102912022089201221092E7
:1036F0001191B02212921391FEF73AFC01980F211A
:103700000291039004900590069002A80221FEF712
:10371000D1F91AB080BD00007047000081B0009060
:10372000009890F82800000700280BD5FFE70098C4
:103730000068406820F40040009A1168926B1043C2
:103740004860FFE7009890F82800C00758B1FFE7ED
:1037500000980068406820F40030009A1168D26A2E
:1037600010434860FFE7009890F828008007002881
:103770000BD5FFE700980068406820F48030009A7D
:103780001168126B10434860FFE7009890F828001A
:10379000400700280BD5FFE700980068406820F438
:1037A0008020009A1168526B10434860FFE7009830
:1037B00090F82800C00600280BD5FFE700980068A5
:1037C000806820F48050009A1168D26B10438860A2
:1037D000FFE7009890F82800800600280BD5FFE747
:1037E00000980068806820F40050009A1168126CFC
:1037F00010438860FFE7009890F8280040060028F2
:103800001CD5FFE700980068406820F48010009AFB
:103810001168526C104348600098406CB0F5801FEE
:103820000BD1FFE700980068406820F4C000009AC0
:103830001168926C10434860FFE7FFE7009890F82A
:103840002800000600280BD5FFE7009800684068B4
:1038500020F40020009A1168D26C10434860FFE702
:1038600001B0704780B588B0069006990020C1F875
:103870009000FEF779F80590069800680068000748
:1038800000282FD5FFE70698059B6A466FF07E411A
:1038900011604FF40011002200F072FB08B3FFE743
:1038A000FFE7FFE70698006850E8000F20F080006F
:1038B0000490FFE704990698026842E80010002887
:1038C000F0D1FFE7FFE706992020C1F88800FFE765
:1038D0000699002081F88400FFE703208DF81F007F
:1038E0005FE0FFE70698006800684007002842D5BF
:1038F000FFE70698059B6A466FF07E4111604FF422
:103900008001002200F03CFBA0B3FFE7FFE7FFE7E8
:103910000698006850E8000F20F490700390FFE7CD
:1039200003990698026842E800100028F0D1FFE7EA
:10393000FFE7FFE7FFE70698006850E8020F20F076
:1039400001000290FFE702990698026842E802101F
:103950000028F0D1FFE7FFE706992020C1F88C008E
:10396000FFE70699002081F88400FFE703208DF827
:103970001F0016E0FFE706992020C1F8880006998D
:10398000C1F88C0006990020C86606990867FFE711
:103990000699002081F88400FFE700208DF81F00C1
:1039A000FFE79DF81F0008B080BD000084B00390C1
:1039B000FFE7FFE70398006850E8000F20F49070DD
:1039C0000290FFE702990398026842E8001000287D
:1039D000F0D1FFE7FFE7FFE7FFE70398006850E853
:1039E000020F4FF6FE71CEF6FF7108400190FFE71F
:1039F00001990398026842E802100028EDD1FFE720
:103A0000FFE70398C06E012814D1FFE7FFE7FFE747
:103A10000398006850E8000F20F010000090FFE7C6
:103A200000990398026842E800100028F0D1FFE7EF
:103A3000FFE7FFE703992020C1F88C0003990020DD
:103A4000C8660399486704B07047000080B590B01D
:103A50000F9000208DF82F000F98006848F20001A9
:103A6000C4F20001884201D1FFE700E0FFE70F99AF
:103A700088680B694A69C9691843104308430E9066
:103A80000F980068006846F6F311CCF6FF71084005
:103A90000E9908430F99096808600F9800684068FC
:103AA00020F440500F9A1168D268104348600F9874
:103AB00080690E900F98006848F20001C4F200017E
:103AC000884206D0FFE70F98016A0E9808430E90CF
:103AD000FFE70F98006880684FF2FF41C1F2FF11C5
:103AE00008400E9908430F99096888600F9800688C
:103AF000C06A20F00F000F9A1168526A1043C86222
:103B0000FFE70F98006843F60001C4F20101884204
:103B10002DD1FFE70320FFF7F9F9A0F5403001466A
:103B2000089103281ED808990FF2080000EB8100C5
:103B3000874600BF00F006B800F00CB800F006B8E9
:103B400000F00CB801208DF835000FE002208DF850
:103B500035000BE004208DF8350007E008208DF8D3
:103B6000350003E010208DF83500FFE782E00F9864
:103B7000006844F20041C4F2000188423FD1FFE7EF
:103B80000C20FFF7C3F9A0F54020014607910C284F
:103B900030D807990FF2080000EB8100874600BF7C
:103BA00000F018B800F026B800F024B800F022B8F1
:103BB00000F018B800F01EB800F01CB800F01AB8F9
:103BC00000F00CB800F016B800F014B800F012B80D
:103BD00000F00CB800208DF835000FE002208DF8C1
:103BE00035000BE004208DF8350007E008208DF843
:103BF000350003E010208DF83500FFE739E00F981D
:103C0000006848F20001C4F2000188422CD1FFE7AD
:103C10004FF44060FFF768F90146069178B1FFE77D
:103C20000698B0F5806F12D0FFE70698B0F5006FE8
:103C300009D0FFE70698B0F5406F0CD00FE00020E8
:103C40008DF835000FE002208DF835000BE00420E0
:103C50008DF8350007E008208DF8350003E01020CE
:103C60008DF83500FFE703E010208DF83500FFE701
:103C7000FFE7FFE7FFE70F98006848F20001C4F292
:103C80000001884240F08F80FFE79DF83500014633
:103C9000059108282AD805990FF2080000EB810049
:103CA000874600BF00F010B800F020B800F010B850
:103CB00000F01CB800F012B800F018B800F016B808
:103CC00000F014B800F00EB8FEF762F8099013E0A7
:103CD00042F20040C0F2F40009900DE0FEF780F8D7
:103CE000099009E04FF40040099005E00020099098
:103CF00001208DF82F00FFE70998002852D0FFE738
:103D000009980F994A6A45F22871C0F6000131F806
:103D10001210B0FBF1F00A900A980F99496801EB74
:103D20004101884207D3FFE70A980F994968B0EB31
:103D3000013F04D9FFE701208DF82F0031E00998F9
:103D40000F994A6803924A6A45F22871C0F6000149
:103D500031F81220002304931946FCF7C7FA039A9E
:103D6000049B090241EA1061000210EB520041F18C
:103D70000001FCF7BBFA0C900C98B0F5407F0BD318
:103D8000FFE70C990020B0EB115F05D1FFE70C981D
:103D90000F990968C86003E001208DF82F00FFE744
:103DA000FFE7FFE7DBE00F98C069B0F5004F72D185
:103DB000FFE79DF835000146029108282ED80299A8
:103DC0000FF2080000EB8100874600BF00F010B83A
:103DD00000F012B800F014B800F020B800F016B8E7
:103DE00000F01CB800F01AB800F018B800F012B8D3
:103DF000FDF7CEFF099017E0FDF7DEFF099013E015
:103E000042F20040C0F2F40009900DE0FDF7E8FF37
:103E1000099009E04FF40040099005E00020099066
:103E200001208DF82F00FFE7099898B3FFE7099864
:103E30000F9A5168536A45F22872C0F6000232F8B0
:103E40001320B0FBF2F0400000EB5100B0FBF1F0AA
:103E50000C900C98102818D3FFE7BDF83200A0B9D9
:103E6000FFE70C9820F00F00ADF836000C9800F03A
:103E70000E01BDF8360040EA5100ADF83600BDF83D
:103E800036000F990968C86003E001208DF82F0003
:103E9000FFE7FFE762E09DF8350001460191082841
:103EA0002ED801990FF2080000EB8100874600BF71
:103EB00000F010B800F012B800F014B800F020B80C
:103EC00000F016B800F01CB800F01AB800F018B8EE
:103ED00000F012B8FDF75CFF099017E0FDF76CFFEA
:103EE000099013E042F20040C0F2F40009900DE0A6
:103EF000FDF776FF099009E04FF40040099005E0D6
:103F00000020099001208DF82F00FFE7099820B3C9
:103F1000FFE709980F9A5168536A45F22872C0F674
:103F2000000232F81320B0FBF2F000EB5100B0FBBE
:103F3000F1F00C900C9810280AD3FFE7BDF832007E
:103F400030B9FFE7BDF830000F990968C86003E099
:103F500001208DF82F00FFE7FFE7FFE7FFE70F994C
:103F60000120A1F86A000F99A1F868000F990020BC
:103F700048670F9988679DF82F0010B080BD00003A
:103F800080B586B0DDF820C0049003918DF80B2039
:103F90000193FFE704980068C06903990840401A3C
:103FA000B0FA80F040099DF80B10884266D1FFE717
:103FB00008980130002860D0FFE7FDF7D5FC019993
:103FC000401A0899884203D8FFE7089820B9FFE70C
:103FD00003208DF8170055E004980068006840073A
:103FE000002849D5FFE70398802845D0FFE70398CC
:103FF000402841D0FFE704980068C06900F008013C
:104000000120B0EBD10F16D1FFE70498016808201A
:10401000009008620498FFF7C9FC00980499C1F861
:104020009000FFE70499002081F88400FFE7012059
:104030008DF8170026E004980068C06900F400615C
:104040000120B0EBD12F16D1FFE7049801684FF49F
:10405000006008620498FFF7A9FC04992020C1F8C9
:104060009000FFE70499002081F88400FFE7032017
:104070008DF8170006E0FFE7FFE78BE700208DF8DB
:104080001700FFE79DF8170006B080BD81B08DF8DE
:1040900003009DF9030000280ED4FFE79DF90310EB
:1040A00001F01F02012090404A094EF20011CEF2A9
:1040B000000141F82200FFE701B070474EF60C50B6
:1040C000CEF200000068C0F30220704782B08DF885
:1040D000070000919DF9070000280AD4FFE7009827
:1040E00000019DF907104EF20042CEF20002885402
:1040F0000BE0009800019DF8071001F00F014EF64B
:104100001452CEF200028854FFE702B0704700005C
:1041100083B00290029800F0070000904EF60C5118
:10412000CEF200010868019001984FF6FF0210409E
:1041300001900198009A40EA02200022C0F2FA524F
:10414000104301900198086003B0704781B08DF86A
:1041500002009DF80200012804D1FFE705208DF838
:1041600003000CE09DF80200022804D1FFE70620BE
:104170008DF8030003E004208DF80300FFE79DF8AD
:10418000030001B07047000080B596B01590ADF8FF
:10419000521045F68D10C0F6000000F0DFF845F62D
:1041A0002320C0F6000000F0D9F80020ADF8500040
:1041B000FFE7BDF85000BDF85210884280F29F80A2
:1041C000FFE79DF85000400638B9FFE745F68D102F
:1041D000C0F6000000F0C2F8FFE745F6DD11C0F6BA
:1041E00000010DF10A004622FCF716F901208DF8B6
:1041F000090034208DF8080000208DF80700FFE743
:104200009DF807000F2855DCFFE7BDF850009DF82A
:1042100007100844BDF85210884244DAFFE71598A9
:10422000BDF850109DF807201144405C8DF8060041
:104230009DF80600010945F24070C0F60000425C9E
:104240009DF80930591C8DF809100DF10A01CA5466
:104250009DF8062002F00F02805C9DF80920531C97
:104260008DF8093088549DF8090001308DF8090057
:104270009DF80600202809DBFFE79DF806007F284F
:1042800004DCFFE79DF80600009002E02E2000907D
:10429000FFE700989DF80820511C8DF808100DF1DB
:1042A0000A018854FFE7FFE79DF8070001308DF809
:1042B0000700A5E7BDF8500000098DF80500BDF81E
:1042C0005000FF2804DCFFE7202000F077F8FFE72C
:1042D0009DF8051045F6D610C0F6000000F018F85D
:1042E00045F6DA10C0F600000DF10A0100F036F8CC
:1042F000FFE7BDF850001030ADF8500059E745F623
:104300008D10C0F6000000F029F816B080BD000046
:1043100083B080B5C3B0479346924591429045A87B
:104320000190429A019B02A84FF48071FCF756F865
:104330000090009801280CDBFFE7BDF8002048F250
:104340006800C2F2000002A94FF0FF33FEF782FCC2
:10435000FFE743B0BDE8804003B0704783B080B54D
:10436000C3B0479346924591429045A80190429A26
:10437000019B02A8FE21FCF731F80090009801286B
:1043800016DBFFE7009A501C009002A90D2088540C
:10439000009A501C00900A208854BDF8002048F272
:1043A0006800C2F200004FF0FF33FEF753FCFFE756
:1043B00043B0BDE8804003B07047000080B582B0D4
:1043C0008DF8070048F26800C2F200000DF1070105
:1043D00001224FF0FF33FEF73DFC02B080BD00002C
:1043E00080B5FDF7C7FAFFF76FF9FEF7F1FEFEF7AC
:1043F000FBFE80BD80B586B00490049860B1FFE7F5
:10440000049908684A688B6848F20411C2F20001F6
:104410008B604A60086013E048F20411C2F20001A8
:104420004AF20010C3F2BC3008600C200871002072
:104430004871012088710820088116208872FFE7E2
:104440000120FEF7D1FC40F20800C2F20000082172
:104450000160FEF749FA20B1FFE700208DF8170050
:104460003BE0322000900121039100220192FDF7F0
:10447000EFFA0098FDF7E2FA019800F0EFFB00F088
:10448000F9FB0A20FDF7D2F800F08CFA00F0E0FB0F
:1044900000F0D8FB48F20410C2F20000029000685D
:1044A00000F01CFB00F092FA0320FDF7BFF800F0CB
:1044B0008BFB029890F90A0000F0EEFB00F036FB4F
:1044C000FF2000F093FB00F0D3FA00F0E3FA00F0D5
:1044D000F1FA03988DF81700FFE79DF8170006B072
:1044E00080BD000080B58AB0EFF30580099009987F
:1044F00038B1FFE748F21011C2F200010120087044
:10450000C9E048F21010C2F20000007808B9FFE7D5
:10451000C1E048F21011C2F200010020087000F062
:1045200093FAADF82200BDF8220000F061FABDF860
:104530002200C00778B1FFE748F21C20C2F2000059
:10454000006838B1FFE748F21C20C2F200000068A2
:104550008047FFE7FFE7BDF822008007002870D5FD
:10456000FFE70020ADF8200040F20800C2F2000092
:10457000132108AA0223FEF7CDF89DF820008DF83C
:104580001F009DF821008DF81E009DF81F000128D6
:1045900003DBFFE70020019003E09DF81F0001907E
:1045A000FFE701988DF81D009DF81E109DF81D3045
:1045B00040F20800C2F20000009048F21112C2F26C
:1045C0000002FEF70BFA009800218DF81C10ADF8E0
:1045D0001A1014210DF11A020323FEF79BF89DF81F
:1045E0001A004142C0EBD1704008ADF818009DF9A7
:1045F0001B0000EB907080088DF8170048F2142023
:10460000C2F200000068D8B1FFE748F21110C2F210
:10461000000002909DF81D008DF80C00BDF81800F8
:10462000ADF80E009DF817008DF8100048F2142028
:10463000C2F20000036802980399049A9847FFE7C2
:10464000FFE7BDF82200400600280FD5FFE740F243
:104650001400C2F20000006838B1FFE740F2140015
:10466000C2F2000000688047FFE7FFE7BDF82200C4
:10467000800500280FD5FFE748F21820C2F200009D
:10468000006838B1FFE748F21820C2F20000006865
:104690008047FFE7FFE70AB080BD000080B582B029
:1046A0000190FF2000F0A2FA019800F00DFB01201C
:1046B00002B080BD81B00090009848F21421C2F28F
:1046C0000001086001B0704781B00090009848F286
:1046D0001821C2F20001086001B0704781B000905B
:1046E000009848F21C21C2F20001086001B0704736
:1046F00080B584B003908DF80B100120019000F07C
:10470000ADFA9DF80B0000F071FA039A9DF80B309A
:1047100040F20800C2F200000021FEF7CFF900F0DD
:104720000DFB019804B080BD80B582B001200190DE
:1047300000F094FA019802B080BD000080B588B006
:10474000002001900790FFF74BFE45F66C00C0F685
:104750000000FFF703FE45F6EB00C0F60000FFF790
:10476000FDFD4FF4FA60FCF761FF45F68310C0F6DB
:104770000000FFF7F3FD45F63700C0F600004AF2EF
:104780000011C3F2BC31FFF7C3FD45F2F970C0F66A
:1047900000000C21FFF7BCFD019945F26070C0F6E6
:1047A0000000FFF7B5FD45F62100C0F60000052129
:1047B000FFF7AEFD45F60D00C0F600000821FFF73B
:1047C000A7FD45F2BE70C0F600001621FFF7A0FD60
:1047D00044F6FD00C0F60000FFF76CFF44F66910D8
:1047E000C0F60000FFF77AFF44F65110C0F6000053
:1047F000FFF76AFF45F25470C0F60000FFF7FAFDBC
:1048000048B9FFE745F64F00C0F60000FFF7A6FDE8
:10481000FFE700BFFDE740F6B830FFF73FFF024675
:1048200045F67B10C0F6000045F66311C0F60001A6
:10483000002A18BF014645F2E470C0F60000FFF7F9
:1048400067FD45F69D00C0F60000FFF787FD43F2C7
:104850003010C0F23200CDF8170043F23500C3F239
:104860003800059006208DF81300FFE7FFF73AFEA9
:10487000FDF77AF80390039848F2FC01C2F20001B8
:104880000968401A41F28831884235D3FFE703981E
:1048900048F2FC01C2F20001086045F6D300C0F600
:1048A0000000FFF75BFD45F64D10C0F60000FFF776
:1048B00055FDFFF739FF45F66810C0F60000FFF719
:1048C0004DFD05A80621FFF713FF8DF80B009DF89D
:1048D0000B00C20745F67B10C0F6000045F66311D9
:1048E000C0F60001002A18BF014645F2D670C0F696
:1048F0000000FFF70DFDFFE7B8E7000080B584B0CA
:1049000003920291019048F20011C2F200010120CD
:1049100008709DF8080038B9FFE745F62210C0F688
:104920000000FFF71BFD11E09DF80810BDF90A20FB
:104930009DF90C3045F28C70C0F60000FFF7E8FCE2
:1049400001989DF80810FFF71FFCFFE704B080BD39
:1049500080B545F63010C0F60000FFF7FFFC4FF6BB
:10496000FE70FFF79BFE80BD80B582B04FF6FE70F3
:10497000FFF794FE8DF807009DF80700C20745F683
:104980007B10C0F6000045F66311C0F60001002A56
:1049900018BF014645F2E470C0F60000FFF7B8FC0E
:1049A00002B080BD80B582B07F208DF8070040F254
:1049B0000800C2F2000089210DF107020123FDF772
:1049C00015FF0520FCF732FE02B080BD80B582B035
:1049D0004DF6D730ADF8060040F20800C2F20000F4
:1049E00098210DF106020223FDF700FF02B080BD01
:1049F00080B582B0ADF806009DF807008DF8040080
:104A00009DF806008DF8050040F20800C2F2000093
:104A100001AA02231946FDF7E9FE02B080BD00009D
:104A200080B582B08DF807008DF806109DF807104C
:104A300040F20800C2F200000DF106020123FDF76A
:104A4000D5FE02B080BD000080B582B00020ADF878
:104A5000060040F20800C2F2000012210DF1060229
:104A60000223FDF757FEBDF8060040BA02B080BD34
:104A700080B582B00020ADF8060040F20800C2F216
:104A800000008F210DF106020223FDF7AFFE02B0F8
:104A900080BD000080B582B001238DF8073040F260
:104AA0000800C2F200009D210DF10702FDF79EFEF5
:104AB00002B080BD80B582B00020019044F2023087
:104AC000C4F20230009040F20800C2F200006A46D0
:104AD00008231946FDF78AFE02B080BD80B584B078
:104AE000039003994806C90944F60002C0F2E8128F
:104AF0000023FBF7FBFB02909DF80B008DF80400F0
:104B0000BDF80A008DF805000298000A8DF806002D
:104B100002988DF8070040F20800C2F200008621DA
:104B200001AA0423FDF762FE04B080BD80B586B003
:104B300048F20410C2F20000029001798DF81710BB
:104B40004079FFF703FB014602988DF81610807933
:104B50008DF815009DF8171001200C29039012D034
:104B6000FFE79DF8171000200B29019008D1FFE7FF
:104B70009DF816000438B0FA80F040090190FFE774
:104B800001980390FFE7039800F001008DF81400EE
:104B90009DF817008DF810009DF816008DF8110093
:104BA0009DF815008DF812009DF814008DF8130083
:104BB00040F20800C2F200008B2104AA0423FDF792
:104BC00015FE06B080BD000080B582B040F20470D2
:104BD000C0F20010019040F20800C2F200009521DE
:104BE00001AA0423FDF702FE02B080BD80B584B0A7
:104BF0008DF80F0048F20410C2F200000089ADF8F1
:104C00000C009DF80D008DF806009DF80C008DF845
:104C1000070000208DF808009DF80F108DF809108E
:104C200001218DF80A108DF80B0040F20800C2F245
:104C300000008C210DF106020623FDF7D7FD04B01C
:104C400080BD000080B58A200121FFF7E9FE80BD0C
:104C500080B596200121FFF7E3FE80BD80B582B0CC
:104C60008DF807009DF807108020FFF7D9FE02B0ED
:104C700080BD000080B582B00620C4F20100019022
:104C800040F20800C2F20000972101AA0423FDF7B8
:104C9000ADFD02B080BD000080B582B08DF8070088
:104CA0009DF807008DF8050004208DF8060040F2FD
:104CB0000800C2F200008E210DF105020223FDF76B
:104CC00095FD02B080BD000080B584B003900398CC
:104CD00030B1FFE703984FF6FE71884204D3FFE737
:104CE0006FF07F40009003E0039880010090FFE7A1
:104CF0000098029002986FF07F41884206D3FFE748
:104D00004FF6FE70C0F2FF000290FFE7BDF80A0008
:104D10008DF805000298000A8DF8060002988DF8BB
:104D2000070040F20800C2F2000082210DF10502E6
:104D30000323FDF75BFD04B080BD000080B582B0A9
:104D400000208DF806004EF60260ADF8040040F237
:104D50000800C2F20000832101AA0323FDF746FDEB
:104D600002B080BD5FEA400C08BF91F0000F4FEA2F
:104D70008C234FEAC12243EA51514FEA1C5018BF1D
:104D800000F5F0404FEA300018BF41F000415FEA03
:104D90006C5C00F02980BCF1FF3F08BF40F0804010
:104DA0007047130C06BF12044FF0100C4FF0000CAC
:104DB000130E04BF12020CF1080C130F04BF1201F2
:104DC0000CF1040C930F04BF92000CF1020CD30FF2
:104DD00004BF52000CF1010C11464FF00002A0F18B
:104DE0001F00A0EB0C00704711F0004F08BF704788
:104DF00031F000413FF4D5AF0B0C06BF09044FF072
:104E0000100C4FF0000C0B0E04BF09020CF1080C43
:104E10000B0F04BF09010CF1040C8B0F04BF8900B8
:104E20000CF1020CCB0F04BF49000CF1010CCCF1CA
:104E3000200322FA03F341EA030102FA0CF2A0EB89
:104E40000C0000F10100704723F07F4720F07F4CF9
:104E500080EA030000F00040ACEB070303F57C534D
:104E600003F1FF032DE9804909B44FEA144324EA12
:104E700003484FEA154B25EA0B4E0FF2042606EBCA
:104E800013273E7803FB0667C7F5000707FB06F606
:104E90004FEAD64606F102064FEA543707FB066C86
:104EA000CCF1005C4FEA1C472CEA074C0CFB06F5E2
:104EB00007FB06F404EB15464FEA961649085FEA2D
:104EC000320234BF00204FF000404FEAD13706FBDA
:104ED00007FC4FEA1C4C0CFB0BF7D21B03FB0CF737
:104EE00061EB07010CFB0EF7B0EB074072EB1742CA
:104EF0000CFB08F734BFA2EB0742B2EB074261EBB1
:104F000017414FEA0C444FEA910706FB07FC4FEAB2
:104F10001C4C0CFB0BF7B0EBC74072EB573203FB9A
:104F20000CF734BFA2EBC742B2EBC74261EB57317B
:104F30000CFB0EF7B0EBC70072EB57720CFB08F7D7
:104F400034BFA2EBC702B2EBC70261EB57714FEA65
:104F5000816141EA92114FEA826242EA90124FEA7D
:104F6000806004EBCC04039F4FEAD13706FB07FCBB
:104F70004FEA1C4C0CFB0BF7D21B03FB0CF761EB4D
:104F800007010CFB0EF7B0EB074072EB17420CFB6E
:104F900008F734BFA2EB0742B2EB074261EB1741BF
:104FA0004FEA8C5504EB9C244FEA910706FB07FC63
:104FB0004FEA1C4C0CFB0BF7B0EBC74072EB5732BF
:104FC00003FB0CF734BFA2EBC742B2EBC74261EB65
:104FD00057310CFB0EF7B0EBC70072EB57720CFBAE
:104FE00008F734BFA2EBC702B2EBC70261EB5771FF
:104FF0004FEA816141EA92114FEA826242EA9012DD
:105000004FEA806015EB4C2544F100044FEAD1379C
:1050100006FB07FC4FEA1C4C0CFB0BF7D21B03FBF7
:105020000CF761EB07010CFB0EF7B0EB074072EBDE
:1050300017420CFB08F734BFA2EB0742B2EB074262
:1050400061EB17414FEA813141EA92414FEA8232E6
:1050500042EA90424FEA80304FEA0C7615EB1C157D
:1050600044F1000448EA03434EEA0B484FF0000EB7
:10507000B2EB080C71EB030724BF624639464EEBD6
:105080000E0E4FF0000B0018524149414BEB0B0B39
:10509000B2EB080C71EB03077BF1000B24BF6246F7
:1050A00039464EEB0E0E4FF0000B001852414941AD
:1050B0004BEB0B0BB2EB080C71EB03077BF1000B16
:1050C00024BF624639464EEB0E0E51EA020718BF66
:1050D00046F0010616EB0E7655F1000254F1000180
:1050E00003D5BDE88901BDE80088BDE88901BDE8B8
:1050F0000048B619524141EB0101A3F10103704789
:1051000080807F7E7D7C7B7A797877767675747304
:10511000727171706F6E6E6D6C6C6B6A6A696868C3
:10512000676666656464636362616160605F5F5E59
:105130005E5D5D5C5C5B5B5A5A59595858575756CF
:105140005655555554545353525252515150505034
:105150004F4F4F4E4E4D4D4D4C4C4C4B4B4B4A4A86
:105160004A494949484848474747474646464545CA
:105170004544444444434343434242424241414103
:105180009C46002B30D477002BD04FEA37071CB554
:1051900003B44FF010004FF01001BAF1000F06D029
:1051A000BCF1000FDCBF40F0080040F008014FF0F8
:1051B00000000FBCBDE810400BF1010BBBF1010F6B
:1051C00008BF5FEA170722BF12F1010211F10101C6
:1051D0004FF0004143F1000300F0004043EA0000BB
:1051E0007047F9D35708D0E746EA06464FEA164615
:1051F00013F1400F1FDD13F1200FDFBF16430A46E6
:10520000002120335B42BED0C3F1200746EA0646A8
:105210004FEA164602FA07F746EA070622FA03F2B1
:10522000C3F1200701FA07F742EA070221FA03F166
:105230004FF00003A7E746EA020646EA06464FEAB1
:10524000164646EA0106BCBF46EA0646360C4FF053
:1052500000034FF000024FF0000194E72DE9804C6D
:1052600070B49A46934691E8380007C831EA400C7A
:1052700048BF34EA430C03D5FFF7E6FDFFF780FF94
:10528000F0BCBDE8008C2DE9804C70B49A46934682
:1052900091E8380007C810F0804F08BF13F0804F26
:1052A00003D100F005F8FFF76BFFF0BCBDE8008C00
:1052B00020F07F4723F07F4C80EA030000F000409D
:1052C00007EB0C03A3F57C53A3F1FE0392F0000F50
:1052D00000F0B38095F0000F00F077802DE90149D0
:1052E0004FEA114021EA00484FEA144624EA0647F3
:1052F00000FB06FC08FB06F607FB08F818EB06485F
:105300004CEB164C00FB07F718EB07484CEB17402B
:105310004FEA124B22EA0B4E4FEA154625EA0647A2
:105320000BFB06FC0EFB06F607FB0EFE1EEB064E05
:105330004CEB164C0BFB07F71EEB074E4CEB174BD9
:1053400018EB0B0840F1000018EB0E0B58EB0008AF
:1053500040F100008F1A4FF000014FF000063CBFF3
:10536000C943661B14BFB5EB040C00213CBFC94305
:10537000F61B4FEA174427EA04454FEA1C472CEA7C
:10538000074C04FB076205FB07F70CFB05F616EB61
:10539000074642EB174204FB0CFC16EB0C4642EBB3
:1053A0001C421BEB060658EB020241414EEA8E0EF0
:1053B00046EA9E0601D5BDE80189B619524141EB86
:1053C0000101A3F10103BDE801894FEA144524EA74
:1053D00005464FEA114721EA074C05FB07F406FB97
:1053E00007F70CFB06F111EB074144EB174405FBF3
:1053F0000CFC11EB0C4144EB1C444FEA124722EA2F
:10540000074C05FB07F206FB07F70CFB06F616EB4D
:10541000074642EB174205FB0CFC16EB0C4642EB31
:105420001C456A1854F1000148BF7047B619524133
:1054300041EB0101A3F10103704795F0000F37D054
:105440004FEA114221EA02464FEA144724EA074C88
:1054500002FB07F106FB07F70CFB06F414EB07440D
:1054600041EB174102FB0CFC14EB0C4441EB1C41DB
:105470004FEA154725EA074C02FB07F506FB07F73D
:105480000CFB06F616EB074645EB174502FB0CFC3A
:1054900016EB0C4645EB1C42121951F1000148BFB6
:1054A0007047B619524141EB0101A3F10103704766
:1054B0004FEA144524EA05464FEA114721EA074C12
:1054C00005FB07F106FB07F70CFB06F212EB0742A0
:1054D00041EB174105FB0CFC12EB0C4251EB1C415C
:1054E0004FF0000648BF7047921841EB0101A3F14D
:1054F00001037047490050EAC12018BF04204A0D3B
:1055000018BF40F0010040F2FF72B2EB515F08BFDC
:1055100040F00200012808BF0520704730380A28F3
:1055200001D20120704700207047000010B500290B
:105530000AD00878002807D005487844FCF730F8EE
:10554000002801D0002010BD0248784410BD0000A2
:10555000720500006A05000010B500290AD008781D
:10556000002807D005487844FCF71AF8002801D035
:10557000002010BD0248784410BD00006205000004
:105580005A050000FBF714BCFBF748BD0000000003
:10559000000000003031323334353637383941427B
:1055A0004344454640305800303132333435363785
:1055B0003839616263646566403078000400000831
:1055C0000000000000000002000100001030313235
:1055D0003334353637383961626364656678700014
:1055E0003031323334353637383941424344454619
:1055F0005850000002400000000000A00000000021
:1056000005400000000000C8000000000C40000041
:105610000000409C00000000194000000020BCBEBB
:105620000000000034400000BFC91B8E00000004D1
:10563000B5400000504BCFD06607E2CF010000001C
:105640006C4100003E8251AADFEEA7340100000049
:10565000D9420000DCB5A0E23A301F97FFFFFFFF00
:10566000B4450000FD25A0C8E9A3C14FFFFFFFFF1F
:10567000FF3F00000000008000000000FF3F00002E
:105680000000008000000000010000000300000096
:1056900005000000010000000100000006000000FD
:1056A0000A000000200000000200000004000000CA
:1056B0000800000010000000400000008000000012
:1056C00000010000000200000000000000000000D7
:1056D00000000000000000000100000002000000C7
:1056E0000300000004000000A0860100400D03003C
:1056F000801A060000350C0040420F0080841E0016
:1057000000093D0000127A000024F40000366E010A
:105710000048E801006CDC0200000000000000000E
:10572000000000000000000001000200040006006C
:1057300008000A000C00100020004000800000015A
:1057400030313233343536373839616263646566F7
:105750000000000000A1BC330C000100080016008E
:10576000425720202020202020202020203A2025C1
:10577000752028303D3132352C313D3235302C32D8
:105780003D353030206B487A290D0A00496E636F31
:105790006D696E67206D6573736167652C206C653C
:1057A0006E6774683A2025642C20525353493A207E
:1057B00025642C20534E523A2025640D0A0054587B
:1057C00020706F77657220202020203A20256420E9
:1057D00064426D0D0A005032502073656E642025BE
:1057E000730D0A0050325020736574205278206D7A
:1057F0006F64652025730D0A005346202020202069
:105800002020202020203A2025750D0A00507265A6
:10581000616D626C6520202020203A2025750D0ADC
:1058200000435220202020202020202020203A2029
:10583000342F25750D0A004672657175656E6379A2
:10584000202020203A20256C7520487A0D0A00453A
:1058500052524F523A206C6F72615F7032705F69C2
:105860006E6974206661696C6564210052414B77F2
:105870006972656C657373204C6F526120503250B1
:1058800020E28093204D41535445522028706C6192
:10589000696E2043202F204B65696C2900202B2B3B
:1058A0002B2B2B2B2B2B2B2B2B2B2B2B2B2B20205E
:1058B000204D41535445522020202B2B2B2B2B2B9A
:1058C0002B2B2B2B2B2B2B2B2B2B2B2B2B2B2B2B28
:1058D0002B2B0020202D2D2D2D2D2D20204C204F29
:1058E000204F2050202D2D2D2D2D002D2D2D2D2DF7
:1058F0002D2D2D2D2D2D2D2D2D2D2D2D2D2D2D2DD8
:105900002D2D2D2D2D2D2D2D2D2D2D2D2D2D2D2DC7
:105910002D2D2D2D2D2D2D2D2D2D2D2D2D2D2D2DB7
:105920002D00456D707479206275666665722E0073
:1059300052582074696D656F757420E280932072EF
:10594000657374617274696E67205258002020205C
:1059500020202020202020202020747820637963BC
:105960006C65004661696C005365742050325020AC
:10597000746F205478206D6F646520537563636580
:1059800073730050325020537461727400202020D1
:105990002B2D2D2D2D2D2D2D2D2D2D2D2D2D2D2D39
:1059A0002D2D2D2D2D2D2D2D2D2D2D2D2D2D2D2D27
:1059B0002D2D2D2D2D2D2D2D2D2D2D2D2D2D2D2D17
:1059C0002D2B202B2D2D2D2D2D2D2D2D2D2D2D2D18
:1059D0002D2D2D2D2B0025582E002573007C2020E9
:1059E00020202020202020202020202020202020B7
:1059F00020202020202020202020202020202020A7
:105A000020202020202020202020202020207C203A
:105A10007C2020202020202020202020202020202A
:105A2000207C002020207C2E30202E31202E322081
:105A30002E33202E34202E35202E36202E37202EA9
:105A400038202E39202E61202E62202E63202E64D5
:105A5000202E65202E66207C207C202020202020E7
:105A6000415343494920202020207C00D85B000876
:105A700000000020080000009C010008E05B000816
:105A800000800020080000009C010008E05B000886
:105A90000800002010040000BC010008E85B0008BA
:105AA0000880002020040000BC0100081C00000049
:105AB00043000000F8FFFFFF0C0000000E00000094
:105AC0000F0000002E000000100100004300000045
:105AD000F8FFFFFF0040404040404040404041410F
