:020000040800F2
:100000000080002075310008C5310008C5310008A6
:10001000C5310008C5310008C531000800000000E6
:10002000000000000000000000000000C5310008D2
:10003000C531000800000000C5310008C5310008C6
:10004000C5310008C5310008C5310008C5310008B8
:10005000C5310008C5310008C5310008C5310008A8
:10006000C5310008C5310008C5310008C531000898
:10007000C5310008C5310008C5310008C531000888
:10008000C5310008C5310008C5310008C531000878
:1000900000000000C5310008C5310008C531000866
:1000A000C5310008C5310008C5310008C531000858
:1000B000C5310008C5310008C5310008C531000848
:1000C000C5310008C5310008C5310008C531000838
:1000D000C5310008C5310008C5310008C531000828
:1000E000C5310008C5310008C5310008C531000818
:1000F000C53100080000000000000000C531000804
:10010000C5310008C531000871310008C53100084B
:10011000C5310008C5310008C5310008C5310008E7
:10012000C5310008C5310008C5310008C5310008D7
:08013000C5310008C5310008CB
:100140000348044B834202D0034B03B11847704766
:100150006000002060000020000000000548064B01
:100160001B1AD90F01EBA301491002D0034B03B1B5
:100170001847704760000020600000200000000069
:1001800010B5064C237843B9FFF7DAFF044B13B1DF
:100190000448AFF300800123237010BD60000020ED
:1001A00000000000C831000808B5044B1BB1044929
:1001B0000448AFF30080BDE80840CFE7000000002E
:1001C00064000020C831000810B51C4C00292468C8
:1001D0009AB02DDB009004904FF40270ADF80C0043
:1001E0004FF00000199013D001394FF6FF700291C3
:1001F0000591ADF80E006946204600F03FF9421C1B
:1002000001DA8B232360009B00221A701AB010BD04
:100210004FF6FF7002910591ADF80E006946204639
:1002200000F02CF9431C01DA8B2323601AB010BDB7
:100230008B2323604FF0FF30F8E700BF0000002061
:1002400030B51446002C9BB005462EDB1A464FF401
:100250000273ADF80C304FF0000300910491199334
:1002600013D04FF6FF73013CADF80E3069461E9B6C
:100270000294059400F002F9421C01DA8B232B60F2
:10028000009B00221A701BB030BD4FF6FF73ADF813
:100290000E3069461E9B0294059400F0EFF8431C53
:1002A00001DA8B232B601BB030BD8B2303604FF032
:1002B000FF30F8E72DE9F0478F681D46AF420B6825
:1002C0000C46164636D8B1F90CC01CF4906F0ED10E
:1002D0003D46184631462A4600F068FBA368DF1BFE
:1002E0002368A7602B4400202360BDE8F0874A699B
:1002F000096902EB42025F1A02EBD2726B1C5210C8
:100300003B44934292BF914699461A461CF4806F33
:10031000804611D0114600F06BFA824600B3216985
:100320003A4600F015FCA38923F4906343F0800360
:10033000A38105E02F46CCE700F0A4FC824658B12B
:100340000AEB0703A9EB0707A760C4F810A0C4F8DD
:10035000149023602F46BCE72169404600F0C8FA9C
:10036000A3890C2243F04003C8F800204FF0FF306F
:10037000A381BAE72DE9F04F9368176883B09246DE
:10038000002B74D04FF0000B8B680A6881460C4636
:100390005D4645E0B4F90C3013F4906F2CD0D4E9ED
:1003A0000401161A01EB410202EBD272711C5210C9
:1003B0002944914292BF904688460A465B0539D54A
:1003C0001146484600F014FA019000283DD032460C
:1003D000216900F0BDFBA289019B22F4906242F0EA
:1003E0008002A2819819A8EB0606A660C4F81480C2
:1003F00023612060A8462E463246594600F0D6FAC0
:10040000DAF80810A3682268A3EB08033244491BFA
:10041000A3602260CAF8081049B3D7E900B50837CD
:1004200098461046002DF8D09D421E46B2D2A846EE
:100430002E46E1E70146484600F024FC034600282A
:10044000D0D12169484600F053FAA3890C2243F029
:100450004003C9F800204FF0FF30A38100220023A1
:10046000CAF80820CAF8043003B0BDE8F08F0020B5
:100470000023CAF8043003B0BDE8F08F2DE9F04F37
:100480001C468B891D069DB088468146934603D540
:100490000B69002B00F0F1800023099343F2200345
:1004A000ADF829309BF800307D4D03940126002BD8
:1004B00073D0DA4603E01AF8013F002B75D0252BE4
:1004C000F9D1BAEB0B0473D19AF80020002A64D05A
:1004D00000234FF0FF32CDE905230AF1010A04930E
:1004E00007938DF853301A9305E0049A06FA03F344
:1004F0001A430492A2465446052214F8011B2846CA
:1005000000F0D6FAA346431B0028EED1049BD80680
:1005100044BF20228DF8532019079AF8001044BFD9
:100520002B228DF853202A2950D1039A11680432C6
:10053000002903927CDB07919AF801102E295BD0E9
:10054000584C0322204600F0B3FA38B1049B001B3C
:100550004022824013430BF1010B04931BF8011B53
:1005600051488DF82810062200F0A2FA002865D024
:100570004E4B002B55D003AA00924D4B424604A986
:100580004846AFF3008007467A1C06D0099B3B44DF
:1005900009939BF80030002B8BD1B8F80C305B0628
:1005A0007AD409981DB0BDE8F08FBAEB0B04F4D0F3
:1005B00023465A4641464846FFF77CFE0130ECD0C0
:1005C000099B9AF80020234409937FE7A1F13002A8
:1005D000092A88BFD346B1D8079B00E001342178AF
:1005E00003EB830302EB4303A1F13002092AF5D99F
:1005F0002E290793A346A3D19BF801102A2927D1BE
:10060000039B9BF802101A6805920433002A0BF131
:1006100002000393B8BF4FF0FF338346B8BF059382
:100620008EE7039B073323F0070308330393ADE7FB
:10063000494243F00203079104937DE703AA009225
:100640001B4B424604A9484600F0E0FB07469BE7E7
:10065000A1F130020023092A05930BF1010B3FF6AB
:100660006FAF1BF8011F03EB830302EB4303A1F100
:100670003002092AF5D9059362E7402100F0B8F865
:10068000C8F80000C8F8100018B14023C8F81430AA
:1006900002E70C23C9F800304FF0FF3082E700BFBB
:1006A000D8350008E0350008E435000800000000F7
:1006B000B502000870B50F4B0F4DAB42A3EB05061A
:1006C00007D0B610002455F8043B01349847A642E1
:1006D000F9D802F079FD094D094B5E1BAB424FEA98
:1006E000A60606D0002455F8043B01349847A642DC
:1006F000F9D870BD203600082036000820360008E2
:1007000024360008830730B547D0541E002A3ED057
:10071000CAB2034601E0013C39D303F8012B9D071F
:10072000F9D1032C2CD9CDB205EB05250F2C05EB07
:10073000054535D9A4F1100222F00F0C03F1100E7B
:10074000E6444FEA121C1A46C2E90055C2E90255B6
:1007500010327245F8D10CF1010214F00C0F03EBCA
:10076000021204F00F0C13D0ACF1040323F00303C6
:100770000433134442F8045B9342FBD10CF00304AE
:100780002CB1C9B21C4403F8011BA342FBD130BDFC
:1007900064461346002CF4D1F9E703461446C0E73B
:1007A0001A46A446E0E700BF70B5104E3368054610
:1007B0000C46B3B12146284600F06EFC431C0CD019
:1007C000C41C24F00304A04205D0211A284600F0DE
:1007D00063FC013001D0204670BD4FF0FF3420464D
:1007E00070BD194600F058FC3060E3E77C00002043
:1007F0002DE9F843CD1C25F0030508350C2D38BF35
:100800000C25002D064618DBA94216D8DFF8DC803F
:1008100000F03EFCD8F80420A2B1144603E063685F
:1008200022467BB11C4623685B1BF8D40B2B1FD8D8
:100830009442636854D053600CE00C233360002072
:10084000BDE8F88329463046FFF7AEFF431C044657
:1008500019D00560304600F01DFC04F10B00231D8B
:1008600020F00700C21A1CBF1B1AA350BDE8F88372
:1008700061199442256014BF5160C8F80410635197
:1008800063684B60E6E7D8F804701FB33C467F68A6
:10089000002FFBD123683946304604EB030900F0F2
:1008A000FBFB814516D12368ED1A29463046FFF738
:1008B0007BFF01300ED02368D8F804202B4423603E
:1008C000536883B1A34203D01A465B689C42FBD1B4
:1008D0000023B0E70C233360304600F0DBFBAEE7CB
:1008E000C8F80430B6E7C8F80470B3E77C0000200D
:1008F000002950D038B551F8043C0C1F002BB8BF6C
:10090000E418054600F0C4FB274A13682BB1A34244
:100910000CD92168601883422CD06360284614608B
:10092000BDE8384000F0B6BBA3420FD81A465B685A
:10093000002BF9D111685018844217D02CD3636072
:1009400054602846BDE8384000F0A4BB1168501838
:10095000A04214D020D8216860188342EFD11868D3
:100960005B680844C4E900035460EAE723680B4469
:100970001360E6E718685B6808442060CDE72068EC
:100980000144501883421160DBD1D3E900040144D3
:10099000C2E90014D5E770470C232B602846BDE858
:1009A000384000F077BB00BF8000002088420ED99D
:1009B0008B1883420BD900EB020C002A6ED06246E2
:1009C00013F801CD02F801CD9942F9D170470F2AF1
:1009D0000FD8034602F1FF3C002A5FD00CF1010C56
:1009E000013B8C4411F8012B03F8012F6145F9D12B
:1009F000704740EA01039B0751D1A2F1100370B583
:100A000001F1200C23F00F0501F1100E00F110048C
:100A1000AC441B095EF8105C44F8105C5EF80C5C9A
:100A200044F80C5C5EF8085C44F8085C5EF8045C12
:100A300044F8045C0EF1100EE64504F11004E9D10F
:100A4000013312F00C0F01EB031102F00F0400EB65
:100A5000031328D0043C24F003064FEA940C1E44F0
:100A60001C1F8E465EF8045B44F8045FB442F9D163
:100A70000CF1010402F0030203EB840301EB840197
:100A800002F1FF3C4AB10CF1010C013B8C4411F81E
:100A9000012B03F8012F6145F9D170BD704702F1B8
:100AA000FF3C03469AE72246EAE700BF0000000049
:100AB00001F0FF01102A2BDB10F0070F08D010F80F
:100AC000013B013A8B422DD010F0070F42B3F6D113
:100AD000F0B441EA012141EA014122F007047FF02C
:100AE00000070023F0E80256083C85EA010586EA83
:100AF000010685FA47F5A3FA87F586FA47F6A5FABF
:100B000087F68EB9EED1F0BC01F0FF0102F00702CA
:100B100032B110F8013B013A83EA010313B1F8D175
:100B20000020704701387047002D06BF3546033856
:100B3000073815F0010F07D1013015F4807F02BF8F
:100B4000013015F4C03F0130F0BC0138704700BFE0
:100B5000844641EA000313F003036DD1403A41D3C8
:100B600051F8043B40F8043B51F8043B40F8043B87
:100B700051F8043B40F8043B51F8043B40F8043B77
:100B800051F8043B40F8043B51F8043B40F8043B67
:100B900051F8043B40F8043B51F8043B40F8043B57
:100BA00051F8043B40F8043B51F8043B40F8043B47
:100BB00051F8043B40F8043B51F8043B40F8043B37
:100BC00051F8043B40F8043B51F8043B40F8043B27
:100BD00051F8043B40F8043B51F8043B40F8043B17
:100BE000403ABDD2303211D351F8043B40F8043BB7
:100BF00051F8043B40F8043B51F8043B40F8043BF7
:100C000051F8043B40F8043B103AEDD20C3205D3C6
:100C100051F8043B40F8043B043AF9D2043208D0BE
:100C2000D2071CBF11F8013B00F8013B01D30B8830
:100C300003806046704700BF082A13D38B078DD00E
:100C400010F003038AD0C3F10403D21ADB071CBFE0
:100C500011F8013B00F8013B80D331F8023B20F84A
:100C6000023B7BE7043AD9D3013A11F8013B00F883
:100C7000013BF9D20B7803704B7843708B7883700B
:100C8000604670472DE9F041144641B30AB3064669
:100C90000D4600F013FA8442074602D8B4EB500F19
:100CA00013D821463046FFF7A3FD804650B1BC4221
:100CB0002246294628BF3A46FFF74AFF29463046D2
:100CC000FFF716FE4046BDE8F081A8464046BDE865
:100CD000F081A046FFF70CFE4046BDE8F081BDE87C
:100CE000F0411146FFF784BD2DE9F84F92461F46AB
:100CF0000A698B68DDF828909A42B8BF1A46CAF88C
:100D0000002091F843300C46064613B10132CAF870
:100D10000020226891065FD5DAF800300233CAF865
:100D20000030226812F0060F11461DD1E168994289
:100D3000D8BF114618DD4FF0000804F1190B05E08B
:100D4000E568DAF80030ED1A45450CDD01235A4616
:100D500039463046C847013008F10108F0D14FF05C
:100D6000FF30BDE8F88F216894F84330003B18BF8E
:100D700001238A060AD5E1185A1C302081F8430065
:100D8000224494F8451082F84310023304F14302E0
:100D900039463046C8470130E1D02368DAF80050C0
:100DA000216903F00603042BD4E902201BD08A42F8
:100DB00020DD4FF00008521A90441A34002501E05B
:100DC000454517DA0123224639463046C8470130E7
:100DD00005F10105F4D1C2E712F0060F0DD0003B7A
:100DE00018BF0123D2E7401B8A4220EAE078E2DC08
:100DF0000028E2DC0020BDE8F88FE168DAF8003076
:100E00009942D8BF114696DCAEE700BF2DE9F04706
:100E1000174684B00A7E0C9D0C460646984601F1A2
:100E2000430C002A35D0A2F15803D9B2202969D841
:100E3000202B67D8DFE813F0E60066006600660046
:100E40006600660066006600660066006600AC002C
:100E5000700066006600660066007000660066004E
:100E60006600660021008300C60066006600B600CA
:100E70006600830066006600EC002B6822686169EA
:100E8000181D286010061B6802D4520600F1E0808D
:100E900019600023E1462361CDF800803B4603AA98
:100EA00021463046FFF720FF013020D023694A4613
:100EB00039463046C047013019D02368E068DDF874
:100EC0000C909B0718D5484516DD002504F1190A3A
:100ED00004E0E068A0EB0903AB420DDD01235246BC
:100EE00039463046C047013005F10105F1D14FF0D8
:100EF000FF3004B0BDE8F0874845B8BF484604B0AD
:100F0000BDE8F08784F84220012004F14209002363
:100F1000206184F84330BFE72A682368111D180652
:100F2000296002D4590600F1958010680146002816
:100F30006268C0F2938054484FF00A0E15E02068B2
:100F40002B6810F0800F53F8041B02D1400648BFF5
:100F500089B26F2A4C482B6014BF4FF00A0E4FF035
:100F6000080E0023626884F84330002AA26051DB37
:100F7000236823F00403236000294BD1002A7BD18E
:100F8000E146BEF1080F56D0ACEB0903236183E7BD
:100F90002B681A6804332B6004F1420984F842205C
:100FA0000120B4E72B686268191D2960D3F800900E
:100FB00000214846FFF77CFD002863D0A0EB090024
:100FC0006060A4E7236843F02003236078222F4861
:100FD00084F845202A6813F0800F52F8041B03D1CF
:100FE00013F0400F18BF89B22A60DA0744BF43F0FC
:100FF0002003236019B9236823F0200323604FF0F6
:10100000100EAEE7582384F845301F482368E1E707
:101010002368DBE77546E146B1FBF5F305FB131AE0
:101020000A46AA4210F80A1009F8011D1946F3D21F
:10103000BEF1080FA8D12368DD07A5D56268236932
:101040009A42A1DC302309F8013C09F1FF399BE702
:1010500019801EE7B2F90010084668E72D20002A23
:10106000A26084F8430002DB23F0040323600A2516
:1010700005484942AE46CEE7037884F8423004F191
:1010800042097EE7606842E7EC3500080036000858
:10109000704700BF704700BF38B5074D00220446B7
:1010A00008462A6000F012F8431C00D038BD2B68B7
:1010B000002BFBD0236038BDC001002051F8043C58
:1010C000181F002BBCBF0B58C0187047044A0549B5
:1010D0001368002B08BF0B46184410601846704771
:1010E000C40100209803002053B94AB9002908BF61
:1010F00000281CBF4FF0FF314FF0FF3000F06AB9FD
:10110000ADF1080C6DE904CE00F006F8DDF804E05E
:10111000DDE9022304B070472DE9F047089D0E4633
:1011200004460F46002B4AD194468C45B2FA82F20F
:1011300060D942B1C2F12003974020FA03F30CFAC0
:1011400002FC1F4394404FEA1C4E1FFA8CF6B7FB7B
:10115000FEF1230C0EFB117743EA074301FB06F077
:1011600098420AD91CEB030301F1FF3780F0158187
:10117000984240F21281023963441B1AA4B2B3FBB5
:10118000FEF00EFB103344EA034400FB06F6A642D1
:101190000AD91CEB040400F1FF3380F00081A64261
:1011A00040F2FD806444023840EA0140A41B002163
:1011B0001DB1D4400023C5E90043BDE8F0878B4250
:1011C00005D90DB1C5E9000100210846F5E7B3FADC
:1011D00083F1002946D1B34202D3824200F2F58066
:1011E000841A66EB030201201746002DE5D0C5E9FD
:1011F0000047E2E7002A40F09380A1EB0C034FEA9E
:101200001C471FFA8CFE0121B3FBF7F607FB1630D3
:10121000230C43EA00430EFB06F0984208D91CEB6E
:10122000030306F1FF3802D2984200F2D08046460E
:101230001B1AA4B2B3FBF7F007FB103344EA0344D4
:101240000EFB00FEA64508D91CEB040400F1FF3399
:1012500002D2A64500F2B6801846A4EB0E0440EA7E
:101260000640A5E7C1F120078B4022FA07FC4CEAB3
:10127000030C06FA01FE20FA07F426FA07F344EA03
:101280000E0400FA01F84FEA1C404FEA1449B3FB80
:10129000F0FE1FFA8CF600FB1E3349EA03430EFBF7
:1012A00006F9994502FA01F20BD91CEB03030EF182
:1012B000FF3A80F08580994540F28280AEF1020EBF
:1012C0006344A3EB0909A4B2B9FBF0F300FB139943
:1012D00044EA094403FB06F6A64208D91CEB0404C1
:1012E00003F1FF3068D2A64266D9023B644443EA68
:1012F0000E40A41BA0FB02E6B4427346B14652D393
:101300004FD05DB1B8EB030264EB090404FA07F7B0
:1013100022FA01F31F43CC40C5E9007400214CE7D9
:10132000C2F1200120FA01F30CFA02FC26FA01F1C5
:10133000964033434FEA1C471FFA8CFEB1FBF7F08F
:1013400007FB1016190C41EA064100FB0EF68E420F
:1013500004FA02F408D91CEB010100F1FF382DD288
:101360008E422BD902386144891B9BB2B1FBF7F640
:1013700007FB161143EA014306FB0EF1994208D917
:101380001CEB030306F1FF3814D2994212D9023E36
:1013900063445B1A46EA004136E73946EDE61846F3
:1013A00002E7F045ADD2BEEB020366EB0C06013856
:1013B000B146A6E74646ECE7034698E74046D3E742
:1013C000D6467EE76444023847E708460DE7023E0A
:1013D00063442DE7704700BF7047704738B5104C25
:1013E000237805460BB9012038BD00F0A7F9227813
:1013F0004FF47A73B3FBF2F3B0FBF3F000F096F81E
:1014000004460028EFD10F2DEDD8024629464FF0B3
:10141000FF3000F04BF8034B20461D60E4E700BFAF
:10142000540000205800002010B5032000F02CF8D4
:1014300000F084F9064B18600F20FFF7CFFF044639
:1014400018B9FFF7CAFF204610BD0124FBE700BF13
:1014500050000020014B1868704700BFC8010020F1
:1014600038B50446FFF7F6FF631C1CBF054B1B781D
:10147000054618BFE418FFF7EDFF431BA342FAD35C
:1014800038BD00BF540000200749CA6822F4E0625A
:101490000302120403F4E063120C134343F0BF632E
:1014A00043F40033CB60704700ED00E0164B30B5DD
:1014B000DC68C4F30224C4F10703251D042B28BFF4
:1014C0000423062D4FF0FF358CBF033C002405FAA2
:1014D00003F321EA0303A54022EA0502A340002802
:1014E00043EA0203ACBF00F16040084A4FEA03132D
:1014F000B8BF00F00F00DBB2AABF00F56140135483
:1015000080F8003330BD00BF00ED00E014ED00E0D6
:10151000002807DB044A4109012300F01F00834033
:1015200042F82130704700BF00E100E00138B0F11F
:10153000807F0BD24FF0E023054A5861F02182F8FA
:1015400023100020072298611A617047012070471C
:1015500000ED00E04FF0B0431868C0F34040704722
:101560004FF0B0431868C0F3400070474FF0B042EE
:10157000536823F47F4343EA0023536070474FF0DE
:10158000B0431868C0F34060704700007FB54FF06B
:10159000B0432C4AD3F80831C0F3031003F00F0313
:1015A00052F82040284A52F82330B4FBF3F401F0FB
:1015B000DBF9264B054693E80700B5F5007F04AB41
:1015C00003E9070010D0224B9C4218D303F5B70360
:1015D00003F67F539C4229D903F5741303F5106376
:1015E0009C4225D802230BE01A4B9C4207D91A4B88
:1015F0009C421BD903F5370303F5D853F0E70023CA
:1016000004AA02EB830353F80C4C144D2B6823F00F
:10161000070323432B60FFF71DFF06462B6803F0EB
:1016200007039C4206D1002004B070BD0123E7E708
:101630000024EAE7FFF70EFF801B0228EED9032003
:10164000F2E700BFEC3100084C320008E03100083E
:10165000C0CF6A00BFEA21013F9334020040005826
:101660004FF0B04310B59A68D96812F00C0205D05B
:101670000C2A4AD101F00303012B50D14FF0B041A5
:101680002B480B6813F0080306D00B6813F008030F
:1016900037D1D1F8941007E00C68240756BFD1F871
:1016A00094300968C3F3032350F82330002A0CBF99
:1016B000184600204FF0B0418A6802F00C020C2A54
:1016C0001ED1CA6802F00302022A2ED0032A06D1D4
:1016D0000B68184A13F4801F174B08BF13464FF0CE
:1016E000B042D068D168D268C0F306205843C1F335
:1016F00002130133B0FBF3F0530F0133B0FBF3F0EF
:1017000010BD0B68C3F30313CEE7042A0AD0082ADE
:1017100005D11B6813F4801304D10648CAE70023DF
:101720001846C7E704480023C4E7034BD7E700BFC8
:10173000EC3100080048E8010024F40008B5FFF788
:101740008FFF4FF0B043044A9B68C3F3031352F872
:101750002330B0FBF3F008BD4C3200082DE9F04116
:101760000446002853D04FF0B0439D68DE680368FC
:101770009B0605F00C0506F0030668D5026A1DB14C
:101780000C2D46D1012E44D1002A40D04FF0B04359
:10179000A16A1A68170756BFD3F894301B681B0953
:1017A00003F0F00399421FD90846FFF7EFFE002827
:1017B0002DD14FF0B042136843F008031360136853
:1017C000A16A23F0F0030B431360606AFFF7CEFEBB
:1017D000FFF7B4FFAB4B1860AB4B1868FFF7FEFD8B
:1017E000002834D0BDE8F0814FF0B042136843F0D8
:1017F00008031360136823F0F0030B431360606A5F
:10180000FFF7B4FE0846FFF7C1FE0028E0D0012034
:10181000E8E74FF0B043002A54D01A6842F00102C2
:101820001A60FFF717FE0746FFF79AFE002842D01E
:101830004FF0B042136843F0080313601368A16AC5
:1018400023F0F0030B431360606AFFF78FFE2368F9
:10185000D80748D42368990700F18C8023681E07B5
:1018600040F1FA80A3694FF0B046002B00F0E18010
:10187000D6F89430E16903F01002914200F0C48080
:1018800003F00302022AC2D0D80740F1B380D6F891
:10189000943023F00103C6F89430FFF7DBFD0746D0
:1018A000D6F89430990740F1A580FFF7D3FDC31B0C
:1018B000112BF5D904E0FFF7CDFDC01B0228B3D9E9
:1018C00003208FE71A6822F001021A60FFF7C2FDB9
:1018D0000746FFF745FE0028B9D0FFF7BBFDC01B48
:1018E0000228F6D9ECE7082D03D00C2D05D1032EE4
:1018F00003D16368002BADD189E74FF0B043A168F5
:101900001A6822F480120A431A606268B2F5803FB6
:1019100010D11A6842F480321A60FFF79BFD074627
:10192000FFF718FE002895D1FFF794FDC01B64282F
:10193000F6D9C5E7B2F5041F04D11A6842F40012C3
:101940001A60E6E7196821F480311960196821F4FA
:1019500000111960002AE0D1FFF77CFD0746FFF770
:10196000F9FD00283FF476AFFFF774FDC01B642833
:10197000F5D9A5E7042D236903D00C2D0ED1022E35
:101980000CD1002B3FF443AF4FF0B0426169536874
:1019900023F0FE4343EA016353605FE74FF0B04634
:1019A000BBB1336843F480733360FFF753FD0746E0
:1019B00033685A0505D4FFF74DFDC31B022BF7D939
:1019C0007EE77368626923F0FE4343EA0263736053
:1019D00044E7336823F480733360FFF73BFD074629
:1019E00033685B057FF53AAFFFF734FDC31B022B6D
:1019F000F6D965E74FF0B042E169D2F8943023F0B0
:101A000010030B43C2F894304FF0B047D7F894302E
:101A100043F00103C7F89430FFF71CFD0646D7F8E2
:101A200094309A0718D4FFF715FD831B112BF6D9B4
:101A300046E7D6F8943023F00103C6F89430FFF758
:101A400009FD0746D6F894309B0705D5FFF702FD40
:101A5000C31B112BF6D933E72368580754D50B4F16
:101A60003B68D90514D400F077FFFFF7F3FC064676
:101A70003B68DA050CD4FFF7EDFC831B022BF7D98A
:101A80001EE700BF5000002058000020000400584E
:101A9000E3684FF0B046002B58D023F08003052BAD
:101AA00002BFD6F8903043F00403C6F890304FF0F0
:101AB000B046FFF7CFFCD6F8903043F0010307465D
:101AC000C6F8903041F28838D6F890309B0705D49C
:101AD000FFF7C0FCC31B4345F6D9F1E6E36823F0EA
:101AE0000403812B1BD1FFF7B5FCD6F8903043F0EF
:101AF0008003C6F8903007464FF0B04641F2883870
:101B0000D6F89030180504D5E36A002B4AD100209E
:101B100068E6FFF79FFCC01B4045F1D9D0E6FFF710
:101B200099FCD6F8903023F08003C6F89030074631
:101B30004FF0B04641F28838D6F890301905E3D519
:101B4000FFF788FCC01B4045F6D9B9E6FFF782FCD9
:101B5000D6F8903023F080030746C6F8903041F263
:101B60008838D6F890301A0516D4FFF773FCD6F8EB
:101B7000903023F00103C6F8903007464FF0B0488C
:101B800041F28836D8F890309B07BDD5FFF762FC4C
:101B9000C31BB342F6D993E6FFF75CFCC01B40457C
:101BA000DFD98DE60C2D4ED0022B4FF0B0431A68D2
:101BB00022F080721A6033D1FFF74CFC0546FFF724
:101BC000DEFC38BBD4E90C314FF0B0420B43D06897
:101BD0002D4901400B43E16B0B43216C0B43616CBE
:101BE0000B43A16B43EA0123D360136843F0807376
:101BF0001360D36843F08053D360FFF72BFC044697
:101C0000FFF7BDFC002882D1FFF724FC001B0A2847
:101C1000F6D955E6FFF71EFC401B0A28CFD94FE640
:101C2000FFF718FC0446FFF7AAFC30B94FF0B042AA
:101C3000164BD1680B40D36069E7FFF70BFC001B24
:101C40000A28F0D93CE6012B3FF4E1AD4FF0B04358
:101C5000D868236B00F003029A427FF4D8AD626B20
:101C600000F0700393427FF4D2ADA26B00F4FE4308
:101C7000B3EB022F7FF4CBAD636C00F06040C01A71
:101C800018BF0120AEE500BF8C80C111FCFFFEEE45
:101C90002DE9F0410D46044610B90120BDE8F08160
:101CA000684E336803F007038B4216D323689A0704
:101CB00027D54FF0B047A268BB6823F0F003134369
:101CC000BB60FFF7C7FB0646BB68DB0319D4FFF711
:101CD000C1FB831B022BF7D911E0336823F0070304
:101CE0000B433360FFF7B6FB0746336803F0070387
:101CF000AB42DBD0FFF7AEFBC01B0228F5D90320B7
:101D0000CCE72368580617D54FF0B0476269D7F87B
:101D1000083123F00F0343EA1213C7F80831FFF725
:101D200099FB0646D7F80831D90305D4FFF792FB93
:101D3000831B022BF6D9E2E723685A0713D54FF02D
:101D4000B047E268BB6823F4E0631343BB60FFF76E
:101D500081FB0646BB689B0305D4FFF77BFB831B17
:101D6000022BF7D9CBE72368180714D54FF0B047FB
:101D70002269BB6823F4605343EAC203BB60FFF7E8
:101D800069FB0646BB68590305D4FFF763FB831B59
:101D9000022BF7D9B3E72368DA070FD4294C23685D
:101DA00003F00703AB4239D8FFF7C8FC264B186095
:101DB000264BBDE8F0411868FFF710BB6268022AA5
:101DC0001DD1FFF7C7FB00283FF467AF4FF0B046C7
:101DD00041F28838B36823F003031343B360FFF77D
:101DE00039FB0746B368626803F00C03B3EB820F5C
:101DF000D4D0FFF72FFBC01B4045F3D97FE7032A60
:101E000002D1FFF7BCFBDEE712B9FFF7A9FBDAE767
:101E10004FF0B0431B685B05D8D43EE7236823F03E
:101E200007032B432360FFF715FB0646236803F0E7
:101E30000703AB42B8D0FFF70DFB801B0228F5D992
:101E40005DE700BF0040005850000020580000200F
:101E500008B5FFF773FC4FF0B043044A9B68C3F327
:101E6000022352F82330D84008BD00BF2C320008AE
:101E700008B5FFF763FC4FF0B043044A9B68C3F317
:101E8000C22352F82330D84008BD00BF2C320008CE
:101E90002DE9F04F524C00234FF00F090A6832FA37
:101EA00003F501D1BDE8F08F012505FA03F818EA22
:101EB000020200F08E804E68032706F003054FEA09
:101EC000430E07FA0EFC6F1E012F6FEA0C0C32D87E
:101ED000876807EA0C0ACF6807FA0EF747EA0A078D
:101EE0008760476827EA0808C6F300179F4047EA5B
:101EF00008074760C76807EA0C088F6807FA0EF7FB
:101F000047EA0807022DC76017D14FEAD30800EB54
:101F1000880803F0070AD8F820704FEA8A0A09FAFD
:101F20000AFB27EA0B0B0F6907FA0AF747EA0B07C8
:101F3000C8F8207001E0032DDCD1076805FA0EF522
:101F400007EA0C073D4316F4403F056041D023F0FB
:101F5000030707F1804707F5803703F0030CBD68DE
:101F60004FEA8C0C4FF0070E0EFA0CFEB0F1904FBA
:101F700025EA0E0E2FD01B4DA8422ED005F5806508
:101F8000A84214BF0725022505FA0CF545EA0E05FF
:101F9000BD602568D74316F4801F0CBF3D40154334
:101FA0002560656816F4001F0CBF3D401543656051
:101FB000D4F8805016F4803F0CBF3D401543C4F860
:101FC0008050D4F88450B60354BF3D401543C4F844
:101FD0008450013362E70025D6E70125D4E700BF2E
:101FE000000800580004004810B5026852E8003F9D
:101FF00023F4907342E8003102680029F5D10F4CB8
:1020000002F1080353E8003F234002F1080C4CE8BA
:1020100000310029F4D1C36E012B07D152E8003FF3
:1020200023F0100342E800310029F7D12023C0F843
:102030008C300023C366436710BD00BFFEFFFFEF77
:102040007047000038B50446C0692169A26823685A
:102050000A4361691D680A437549024329400A43DE
:102060001A605A68E16822F440520A435A60714A81
:10207000A16993421CBF226A11439A6822F06E4202
:1020800022F430620A439A60DA6A616A22F00F022F
:102090000A43DA62684A934219D14FF0B043674A63
:1020A000D3F8883003F0030343F44033934200F045
:1020B000B780B3F1031F24D0013A934200F093801C
:1020C000B0F5004F00F0B180FFF7D2FE96E05C4A19
:1020D00093421CD14FF0B0435A49D3F8883003F0F3
:1020E0000C0343F440228A4200F09A8006D8002B69
:1020F0007FD0554B9A4276D001201AE0B2F10C1FE6
:10210000FAD1B0F5004F50D04FF4004078E0494A82
:102110009342F1D14FF0B043D3F8883003F44063D9
:10212000B3F5006F15D00BD883B9FFF791FE88B9CE
:1021300000204FF00113A3660023C4E91D3338BD0E
:10214000B3F5406FD8D14FF4004003E0FFF788FAB1
:10215000EDE73E4865683E4B626A05EB450133F8A2
:102160001220B0FBF2F39942C6D8B3EB053FC3D8B7
:1021700000231946FEF7B8FF090241EA10616B0817
:102180000002C0182A464FF0000341F10001FEF79B
:10219000ABFF304BA0F540729A42ADD82368D860AF
:1021A000C6E7FFF755FE0028C2D06168284B626A77
:1021B00033F81220B0FBF2F24B0803EB42034FF668
:1021C000EF72B3FBF1F3A3F11001914294D823F025
:1021D0000F02216892B2C3F342031343CB60A7E717
:1021E000FFF73EFA0AE0B0F5004FF9D1FFF738FAF1
:1021F000D9E7B0F5004FD4D0FFF72AFE002897D0DA
:102200006368616A124A32F81120B0FBF2F000EB09
:102210005300B0FBF3F04FF6EF73A0F11002BBE7F1
:10222000B0F5004F0948EBD1BFE7FFF721FEBAE751
:10223000F369FFCF00800040003801400200030036
:102240000044004008000C0004000C000024F400CE
:102250008C320008FFFC0F00836A1A0710B506D500
:102260000168846B4A6822F4004222434A60DC071A
:1022700006D50168C46A4A6822F4003222434A60E3
:10228000990706D50168046B4A6822F4803222431C
:102290004A605A0706D50168446B4A6822F48022D6
:1022A00022434A60DC0606D50168C46B8A6822F4C2
:1022B000805222438A60990606D50168046C8A68B8
:1022C00022F4005222438A605A060FD50168446CFA
:1022D0004A6822F480122243B4F5801F4A6005D177
:1022E0004A68846C22F4C00222434A601B0606D569
:1022F0000268C16C536823F400230B43536010BD84
:102300002DE9F843DDF8209004460D46174698461F
:102310002268D36935EA03030CBF01230023BB42C3
:1023200001D0002022E0B9F1FF3FF2D0FFF792F890
:10233000A0EB0800484529D8B9F1000F26D0216844
:102340000B685A07E4D5802DE2D0402DE0D0CE694D
:1023500016F008060CD0082520460D62FFF744FE53
:102360000023C4F8905084F884300120BDE8F8833D
:10237000CB691B05CCD54FF400630B622046FFF7F9
:1023800033FE2023C4F8903084F884600320EDE706
:102390002DE9F7439846D0F88830202B04460E46A6
:1023A00017464ED119B9012003B0BDE8F083002AC9
:1023B000F9D021230025C0F89050C0F88830FFF7ED
:1023C00049F8A368A4F85470B3F5805F8146A4F877
:1023D000567003D123690BB935461E46B4F8562012
:1023E000CDF8008092B24B464AB940212046FFF713
:1023F00087FF2023C4F888300028D5D008E00022C9
:1024000080212046FFF77CFF20B12023C4F88830CC
:102410000320C9E722688EB935F8023BC3F30803ED
:102420009362D4F8883003F02103212BBBD1B4F898
:102430005620013A92B2A4F85620CFE716F8013B95
:10244000EEE70220B0E773B504460026C0F89060BE
:10245000FFF700F823681B681A0705461CD56FF0C4
:102460007E430093324603464FF400112046FFF7A7
:1024700047FF88B1226852E8003F23F0800342E81A
:1024800000310029F6D12023C4F88830032000232E
:1024900084F8843002B070BD23681B685B0724D5C4
:1024A0006FF07E43009300222B464FF480012046BC
:1024B000FFF726FFC8B1226852E8003F23F490736B
:1024C00042E8003122680029F5D102F1080353E8FF
:1024D000003F23F0010302F1080040E80031002929
:1024E000F3D12023C4F88C30D0E720230020C4F897
:1024F0008830C4F88C30E0662067C8E710B5044621
:1025000050B3D0F888301BB980F88430FFF798FDBD
:1025100022682423C4F88830136823F00103136071
:10252000A36A13B12046FFF797FE2046FFF78AFD06
:10253000012811D023685A6822F490425A609A68A0
:1025400022F02A029A601A6842F0010220461A60BC
:10255000BDE81040FFF777BF012010BD034AD2F855
:10256000903043F40043C2F89030704700040058A4
:10257000034AD2F8903023F40043C2F890307047F9
:102580000004005870470000074B1A6822F0400210
:102590001A6040F441704FF4B85218605A601A68DB
:1025A00042F040021A6070470000015837B50546F6
:1025B00000284ED0837903F0FF046BB1032C0BD0BD
:1025C000254B4FF400629A612868FFF7DDFF002475
:1025D00001232B71AC602FE000236B712846FFF7BD
:1025E000D1FF1E4AD2F8903043F48053C2F89030A5
:1025F000002CE5D102234FF0B042AB71D2F89430F9
:1026000023F40043C2F89430154B1B681C214B4344
:10261000DB0C64214B430193019B93B90124AC6013
:10262000FFF79CFF0C4B9A6842F400629A604FF4EB
:1026300000629A61002CC7D00123AB71204603B021
:1026400030BD019B013B0193D2F894305B04E3D48D
:10265000E6E70124F2E700BF000400580008005834
:102660005000002037B5174D2B6802461C2043430D
:10267000DB0C6420434314480193019B93B9012070
:102680009060114C21732B681C214B43DB0C64219F
:102690004B430193019B6BB9012090600A4BDB68AF
:1026A00003B030BD019B013B019383689C07E4D5D7
:1026B0000020E6E7019B013B0193A368DB07E9D516
:1026C000ECE700BF500000200000015837B5184D5E
:1026D0002B6802461C204343DB0C6420434315480F
:1026E0000193019BA3B901209060124CFF23237337
:1026F0002B681C256B43DB0C64256B430193019B0A
:1027000073B9012090600B4BDB680B7003B030BDD8
:10271000019B013B019383689C07E2D50020E4E71D
:10272000019B013B0193A368DB07E8D5EBE700BF02
:1027300050000020000001580E4B0F491B68182262
:10274000534382B01B0D6422534301934B69019A9A
:10275000C3F3800322B902238360012002B07047D3
:10276000019A013A01924A69920701D5002BEDD1F5
:102770000020F3E7500000200004005807B503795B
:10278000012B0CD1084B5B880193FFF7F1FE019BF5
:10279000013B0193019B002BF9D1FFF7DFFE03B052
:1027A0005DF804EBFFF7C8BF50000020F8B51F46E6
:1027B0008379012B154604460E46DAB22CD14379B3
:1027C000012B29D04271FFF7D9FF06F0EF03A3F1E7
:1027D000840253425341237131462046FFF7C8FE1D
:1027E000FFF740FF2F44BD4210D1FFF7B7FE842E04
:1027F00002D02046FFF7A0FFA06801230038A37194
:102800004FF0000318BF01206371F8BD15F8011BDC
:102810002046FFF727FFE6E70220F6E7F8B51E4659
:102820008379012B154604460F46DAB227D1437946
:10283000012B24D04271FFF7A1FF39462046FFF754
:1028400097FEFFF70FFF00212046FFF70BFF2E44F6
:10285000AE420ED12046FFF781FEFFF76DFFA06864
:1028600001230038A3714FF0000318BF01206371EA
:10287000F8BD29462046FFF729FF0135E8E7022089
:10288000F6E7F8B51E468379012B154604460F4638
:10289000DAB227D14379012B24D04271FFF76EFFC2
:1028A0000E212046FFF764FEFFF7DCFE3946204686
:1028B000FFF7D8FE2E44B5420ED12046FFF74EFE5C
:1028C000FFF73AFFA06801230038A3714FF000031F
:1028D00018BF01206371F8BD15F8011B2046FFF7F2
:1028E000C1FEE8E70220F6E7F8B51E468379012B22
:1028F000154604460F46DAB22BD14379012B28D076
:102900004271FFF73BFF1E212046FFF731FEFFF724
:10291000A9FE39462046FFF7A5FE00212046FFF715
:10292000A1FE2E44B5420ED12046FFF717FEFFF759
:1029300003FFA06801230038A3714FF0000318BF04
:1029400001206371F8BD29462046FFF7BFFE01351F
:10295000E8E70220F6E70000024A136843F48073B8
:102960001360704700040058024B186800F4C06000
:10297000704700BF000400584FF0B04382B0DA6CDB
:102980000243DA64DB6C03400193019B02B07047A1
:1029900030B599B0FEF748FD4422002107A8FDF7A5
:1029A000B1FE182200216846FDF7ACFE2023012568
:1029B000069306A8B02300240E951093FEF7CEFED2
:1029C0000F2302216846CDE90034CDE90244049486
:1029D000FFF75EF92846FFF7CFFF0220FFF7CCFF95
:1029E0000420FFF7C9FF4FF0B04328469A6D42F428
:1029F00000329A659B6D03F400330093009B0C2515
:102A0000FFF7BAFF0223CDE9065306A907234FF0CB
:102A100090400A93CDE90844FFF73AFA0748084A7C
:102A20004FF4E133C0E90023C0E90244C0E90445A2
:102A3000C0E90644FFF762FD19B030BDCC010020AB
:102A40000044004007B501238DF807100DF107027F
:102A500001460348FFF7AAFE03B05DF804FB00BF80
:102A60008003002007B50B4B8DF803001B890A4833
:102A70005BBAADF8003000238DF802300123ADF8C9
:102A800004306A4606238C21FFF790FE03B05DF800
:102A900004FB00BF74030020800300207FB5644C5A
:102AA000002800F0B38007C884E807004FF0B04367
:102AB000604E5A6E42F001025A665B6E03F00103EB
:102AC0000193019B304608233360FFF76FFD0546F5
:102AD000002840F0AA80024601213220FEF7E6FCE1
:102AE0003220FEF715FD29468020FFF7ABFF524B41
:102AF000029302AA042397213046FFF757FE0A20CB
:102B0000FEF7AEFC7F2302AA89218DF808303046FB
:102B10000123FFF74BFE0520FEF7A2FC01219620C2
:102B2000FFF790FF01218A20FFF78CFF2168434ABD
:102B300000234806C909FEF7D7FA00BA0290042319
:102B400002AA86213046FFF731FE4DF6D73302AA9E
:102B50009821ADF8083030460223FFF727FE032006
:102B6000FEF77EFC364B029302AA042395213046E1
:102B7000FFF71CFEA37A8DF8083004238DF8093086
:102B800002AA02238E213046FFF710FE63792279D4
:102B9000012B46D0022B0CBF062304230C2AA1795B
:102BA00041D00B2A02D1181F454245418DF808201B
:102BB0008DF8093002AA04238DF80A101D488DF8FB
:102BC0000B508B21FFF7F2FDFF20FFF74BFF012495
:102BD0000025022302AA8F211648ADF80850FFF7FE
:102BE000E5FD234602AA9D2112488DF80840FFF713
:102BF000DDFD144B0F48CDE9023508230DEB030230
:102C00001946FFF7D3FD204604B070BD0E4B23607C
:102C10000C23A3800123A371082323811623A3720D
:102C200044E70523BAE70125C0E70020ECE700BF31
:102C30007403002080030020060001400048E801E2
:102C4000040700010243024300A1BC33014B18609A
:102C5000704700BF70030020014B1860704700BF31
:102C60006C030020014B1860704700BF6803002010
:102C700013B50446FF20FFF7F5FE621E4FF6FC7306
:102C80009A4288BF094C0A4898BFA401230C8DF8CA
:102C90000430230A8DF8053001AA032382218DF820
:102CA0000640FFF783FD012002B010BDFEFFFF00CC
:102CB0008003002008B501218020FFF7C3FE01201A
:102CC00008BD000073B50C460F4E0546012180205B
:102CD000FFF7B8FE2046FFF7C5FE23462A4600212F
:102CE0003046FFF7CEFD094B1A889B78ADF80420DB
:102CF0008DF8063001AA032383213046FFF756FDE5
:102D0000012002B070BD00BF80030020A432000883
:102D10002DE9F04186B0EFF30583364A23B1012354
:102D2000137006B0BDE8F08111780029F9D003AD29
:102D30001370ADF80C302A46022312212E48FFF7FB
:102D40006DFDBDF80C30ADF80C305CBA02232A489A
:102D5000A4B22A461946FFF729FDE00703D5274B01
:102D60001B6803B19847A10733D5DFF89480224848
:102D70000026022301AA1321ADF80460FFF74EFDDF
:102D80009DF805101C4833464246FFF7ADFD03236E
:102D90001948ADF8086002AA14218DF80A60FFF7FF
:102DA0003DFD184B1F68A7B19DF80830CDF80C8089
:102DB0005B105B42ADF812309DF909308DF8106060
:102DC000B342B8BF03339B108DF8143095E8070069
:102DD000B847620603D50C4B1B6803B19847A3059F
:102DE0009FD50A4B1B68002B9BD006B0BDE8F04175
:102DF000184700BF60030020800300206C03002000
:102E0000600200207003002064030020680300209B
:102E100007B54FF0FF338DF8070001220DF10701D0
:102E20000248FFF7B5FA03B05DF804FBCC010020BF
:102E30000FB400B5C3B044AB4FF4807153F8042B0A
:102E4000019302A8FDF7C0F9021E06DD05484FF008
:102E5000FF3392B202A9FFF79BFA43B05DF804EB8F
:102E600004B07047CC0100200FB410B5C2B044AB21
:102E700002AC53F8042B0193FE212046FDF7A4F980
:102E800000280CDD0D23235423180A2202305A7027
:102E9000214682B24FF0FF330348FFF779FA42B080
:102EA000BDE8104004B07047CC0100202DE9F04788
:102EB000064692B02F48DFF8BC902F4F0D46FFF723
:102EC000D3FF2E48FFF7D0FF0024AC4205D329489A
:102ED00012B0BDE8F047FFF7C7BF630602D148460E
:102EE000FFF7C2FF264946226846FDF731FE04F18E
:102EF00010082146342001238D4226DD725C03F147
:102F0000480C4FEA121EEC4417F80EE00CF848EC9F
:102F100003F1010C0DF1480E5EFA8CFC02F00F0E6D
:102F2000033317F80EE00CF848ECA2F1200CBCF1CA
:102F30005F0F00F1010C00F14800684488BF2E22A9
:102F400000F8482CDBB25FFA8CF001314145D3D157
:102F5000FF2CC4F3071A02D82020FFF759FF0948B5
:102F60005146FFF765FF08486946FFF77DFF1FFAE6
:102F700088F4AAE7A7320008BA350008F032000842
:102F800040330008393300083D33000808B50448D1
:102F9000FFF76AFFBDE808404FF6FE70FFF768BE16
:102FA0008633000808B54FF6FE70FFF761FE054A4C
:102FB0000549BDE80840002808BF11460348FFF74F
:102FC00037BF00BFA33300089D350008A8330008B1
:102FD0001FB504AB03E907000D4B9DF80840012223
:102FE0001A702CB90B4804B0BDE81040FFF73CBF85
:102FF00021469DF90C30BDF90A200748FFF718FF5C
:103000000198214604B0BDE81040FFF74FBF00BF54
:1030100090030020BD330008CB330008F7B5FFF75D
:10302000B7FC3A48FFF720FF3948FFF71DFF4FF480
:10303000FA60FEF715FA3748FFF716FF36493748AA
:10304000FFF7F6FE36480C21FFF7F2FE3548002167
:10305000FFF7EEFE34480521FFF7EAFE334808216A
:10306000FFF7E6FE16213248FFF7E2FE3148FFF790
:10307000EDFD3148FFF7F0FD3048FFF7F3FD304834
:10308000FFF70CFD20B92F48FFF7EEFE00BFFDE76C
:1030900040F6B830FFF7ECFD2B4A2C492C4C2D4E56
:1030A0002D4D002808BF11462C48FFF7C1FE2C48C3
:1030B000FFF7DAFE2B4B18689A889B790090ADF8E1
:1030C00004208DF8063041F28737FFF721FEFEF726
:1030D000C1F92368C31ABB42F7D920603046FFF715
:1030E000C3FE2846FFF7C0FEFFF7E4FD1E48FFF7CA
:1030F000BBFE06216846FFF7E5FD134A1349002889
:1031000008BF11461948FFF793FEDCE7FD330008BE
:103110002E3400086534000800A1BC336F34000869
:10312000873400089B340008C7340008DD340008E9
:10313000F1340008D12F0008A52F00088D2F0008BA
:10314000CC35000809350008A33300089D35000878
:103150008C0300205C35000874350008A833000893
:1031600026350008B33500088A350008A535000863
:10317000FFF7CEBD0D488546FEF72EF90C480D49E8
:103180000D4A002302E0D458C4500433C4188C42C2
:10319000F9D30A4A0A4C002301E013600432A24228
:1031A000FBD3FDF787FAFFF739FFFEE70080002029
:1031B0000000002060000020303600086000002081
:1031C00098030020FEE70000F8B500BFF8BC08BC7B
:1031D0009E467047F8B500BFF8BC08BC9E467047D5
:1031E000000000000100000002000000A0860100B5
:1031F000400D0300801A060000350C0040420F000D
:1032000080841E0000093D0000127A000024F400B2
:1032100000366E010048E801006CDC02000000008E
:10322000000000000000000000000000000000009E
:10323000000000000000000000000000010000008D
:103240000200000003000000040000000100000074
:103250000300000005000000010000000100000064
:10326000060000000A00000020000000020000002C
:1032700004000000080000001000000040000000F2
:1032800080000000000100000002000001000200B8
:103290000400060008000A000C0010002000400096
:1032A0008000000102EE002020202B2D2D2D2D2D41
:1032B0002D2D2D2D2D2D2D2D2D2D2D2D2D2D2D2D3E
:1032C0002D2D2D2D2D2D2D2D2D2D2D2D2D2D2D2D2E
:1032D0002D2D2D2D2D2D2D2D2D2D2D2B202B2D2D2F
:1032E0002D2D2D2D2D2D2D2D2D2D2D2D2D2D2B003D
:1032F0002020207C2E30202E31202E32202E3320F4
:103300002E34202E35202E36202E37202E38202EFB
:1033100039202E61202E62202E63202E64202E65FF
:10332000202E66207C207C2020202020204153431A
:10333000494920202020207C0025582E002573009C
:103340007C20202020202020202020202020202021
:10335000202020202020202020202020202020206D
:10336000202020202020202020202020202020205D
:10337000207C207C20202020202020202020202095
:10338000202020207C0052582074696D656F757470
:1033900020E280932072657374617274696E672095
:1033A0005258004661696C00503250207365742099
:1033B0005278206D6F64652025730D0A00456D708D
:1033C0007479206275666665722E00496E636F6D52
:1033D000696E67206D6573736167652C206C656E1F
:1033E0006774683A2025642C20525353493A2025AB
:1033F000642C20534E523A2025640D0A0052414B52
:10340000776972656C657373204C6F52612050321E
:103410005020E28093204D41535445522028706C37
:1034200061696E2043202F204B65696C29002D2D8A
:103430002D2D2D2D2D2D2D2D2D2D2D2D2D2D2D2DBC
:103440002D2D2D2D2D2D2D2D2D2D2D2D2D2D2D2DAC
:103450002D2D2D2D2D2D2D2D2D2D2D2D2D2D2D2D9C
:103460002D2D2D2D00503250205374617274004662
:1034700072657175656E6379202020203A20256C75
:103480007520487A0D0A0053462020202020202055
:10349000202020203A2025750D0A004257202020A8
:1034A00020202020202020203A2025752028303D73
:1034B0003132352C313D3235302C323D35303020F3
:1034C0006B487A290D0A004352202020202020201A
:1034D000202020203A20342F25750D0A00507265D7
:1034E000616D626C6520202020203A2025750D0A30
:1034F00000545820706F77657220202020203A20D9
:1035000025642064426D0D0A004552524F523A2004
:103510006C6F72615F7032705F696E697420666192
:10352000696C65642100202B2B2B2B2B2B2B2B2B39
:103530002B2B2B2B2B2B2B2020204D415354455232
:103540002020202B2B2B2B2B2B2B2B2B2B2B2B2BEC
:103550002B2B2B2B2B2B2B2B2B2B2B0020202D2DF8
:103560002D2D2D2D20204C204F204F2050202D2D53
:103570002D2D2D0020202020202020202020202044
:10358000207478206379636C650053657420503231
:103590005020746F205478206D6F646520537563DC
:1035A00063657373005032502073656E6420257319
:1035B0000D0A003530383031320030313233343595
:1035C00036373839616263646566000000A1BC3338
:1035D0000C00010008001600232D302B20000000F5
:1035E000686C4C00656667454647000030313233F1
:1035F00034353637383941424344454600000000EF
:103600003031323334353637383961626364656658
:083610000000000000000000B2
:0836180098D4FF7F01000000BF
:08362000A901000800000000F0
:08362800810100080000000010
:10363000040000200000000084000020EC000020B6
:103640005401002000000000000000000000000005
:10365000000000000000000000000000000000006A
:10366000000000000000000000000000000000005A
:10367000000000000000000000000000000000004A
:1036800000093D00010000001000000000000000E3
:040000050800317549
:00000001FF
